:100000000C94B8000C94E0000C94E0000C94E00018
:100010000C94E0000C94E0000C94E0000C94E000E0
:100020000C94E0000C94E0000C94E0000C94E000D0
:100030000C94E0000C94E0000C94E0000C94E000C0
:100040000C94E0000C94E0000C94E0000C94E000B0
:100050000C94E0000C94E0000C94E0000C94E000A0
:100060000C94E0000C94E0000C94E0000C94E00090
:100070000C94E0000C94E0000C94E0000C94E00080
:100080000C94E0000C94E0000C94E0000C94E00070
:100090000C94E0000C94E0000C94E0000C94E00060
:1000A0000C94E0000C94E0000C94E0000C94E00050
:1000B0000C94E0000C94E0000C94E0000C94E00040
:1000C0000C94E0000C94E0000C94E0000C94E00030
:1000D0000C94E0000C94E0000C94E0000C94E00020
:1000E0000C94E0000C94E0000C94E0000C94E00010
:1000F0000C94E0000C94E0000C94E0000C94E00000
:100100000C94E0000C94E0000C94E0000C94E000EF
:100110000C94E0000C94E0000C94E0000C94E000DF
:100120000C94E0000C94E0000C94E0000C94E000CF
:100130000C94E0000C94E0000C94E0000C94E000BF
:100140000C94E0000C94E0000C94E0000C94E000AF
:100150000C94E0000C94E0000C94E0000C94E0009F
:100160000C94E0000C94E0000C94E0008B049404E8
:1001700011241FBECFEFCDBFDFE2DEBF10E2A0E053
:10018000B0E2EAEAF4E102C005900D92A433B107AF
:10019000D9F720E2A4E3B0E201C01D92A337B20771
:1001A000E1F711E0CEE6D1E004C02297FE010E9403
:1001B0007907CC36D107C9F70E94E2030C94480AAC
:1001C0000C940000AAECB1E022E02C93FC01849195
:1001D0001C9208950F931F93CF93DF93182F062F30
:1001E0008091000280FD1BC0C0E0D2E081E08883E6
:1001F00084E0898380E18A831B8286E08C8380E2AD
:1002000090E00E94E2008C8781E290E00E94E20090
:100210008D878FE79CE00197F1F700C00000E0E0D8
:10022000F2E000A3110F110F110F11A312A280A170
:10023000806880A386818823E9F3E0E0F2E086818C
:10024000868380A1806880A386818823E9F3E0E02B
:10025000F2E08681868380899189DF91CF911F9119
:100260000F91089588ED84BF82E080935000E0E50F
:10027000F0E0818181FFFDCF88ED84BF91E0909314
:10028000400084BFE0E5F0E080818460808381816C
:1002900082FFFDCFE0E5F0E086818D7F8683E0E69A
:1002A000F0E08081816080830895E0E4F6E088E0FA
:1002B000818384E0828341E060EA78E084E690E232
:1002C0000E946005E0916420F091652083E08583C1
:1002D00083818F7C80618383A0EAB8E08FEC1696DF
:1002E0008C93169717961C928481806184838481F5
:1002F00088608483E0EAF0E08281816082830895EF
:10030000CF93DF930E9432010E94550180EEE0E41A
:10031000F6E08183E0E6F6E09FEF9183A0E0B6E0AF
:1003200011968C931197C0E2D6E087E0898384E030
:1003300012968C93129798E012969C9312979A8338
:1003400020E4258390E215969C93159716962C939E
:10035000169720E816962C9320E1268396838583B2
:1003600021E02E8392E09E838E8326839683DF9105
:10037000CF910895FC012081222359F0DC011196D0
:10038000E0EAF8E0818185FFFDCF20832D912111E6
:10039000F9CF0895EF92FF920F931F93CF93DF93BE
:1003A0008C01C7E0D0E0E12CF12C0115110539F4E6
:1003B00061E081E00E94EA00E80EF91E09C0013008
:1003C000110531F461E080E00E94EA00E80EF91EB8
:1003D0008FE39FE10197F1F700C00000219720977C
:1003E00021F7C70167E070E00E944F07CB01DF9162
:1003F000CF911F910F91FF90EF900895CF92DF92D0
:10040000EF92FF9220916020309161204091622014
:100410005091632060915C2070915D2080915E20FE
:1004200090915F200E9469056B017C0120E030E023
:10043000A9010E94C406181624F0F7FAF094F7F800
:10044000F094A70196016091502070915120809105
:100450005220909153200E94C406181644F4EEE4F2
:10046000F0E28081918101968083918304C0109293
:100470004E2010924F2020914820309149204091E9
:100480004A2050914B2060914420709145208091EA
:100490004620909147200E9469056B017C0120E075
:1004A00030E0A9010E94C406181624F0F7FAF0946F
:1004B000F7F8F094A70196016091382070913920E7
:1004C00080913A2090913B200E94C406181644F473
:1004D000E6E3F0E28081918101968083918304C0FC
:1004E00010923620109237202091362030913720FC
:1004F00080913420909135202817390724F084E327
:1005000090E20E94C20420914E2030914F208091B1
:100510003420909135202817390724F08CE490E29C
:100520000E94C20480E090E00E94CA01BC018827BA
:1005300077FD8095982F0E9438062FE135E848E630
:1005400052E40E94CE0525E83BEE41ED5EE30E94B9
:10055000690560935C2070935D2080935E2090938A
:100560005F2081E090E00E94CA01BC01882777FDEE
:100570008095982F0E9438062FE135E848E652E42E
:100580000E94CE0525E83BEE41ED5EE30E94690541
:100590006093442070934520809346209093472099
:1005A000FF90EF90DF90CF9008958F929F92AF923F
:1005B000BF92CF92DF92EF92FF92009709F056C060
:1005C0002091602030916120409162205091632001
:1005D00060915C2070915D2080915E2090915F2001
:1005E0000E9469056B017C0120E030E0A9010E94B6
:1005F000C406181624F0F7FAF094F7F8F0948090F7
:10060000542090905520A0905620B090572020E084
:1006100030E040E05FE3C501B4010E94C806A701D5
:1006200096010E94C406181654F4809158209091A7
:10063000592063E070E00E944F07CB0172C0A70110
:100640009601C501B4010E94C406181654F48091A5
:1006500058209091592099230CF4019695958795EF
:1006600060C080915820909159205BC0019709F09B
:1006700056C0209148203091492040914A20509105
:100680004B206091442070914520809146209091AC
:1006900047200E9469056B017C0120E030E0A90140
:1006A0000E94C406181624F0F7FAF094F7F8F094B4
:1006B00080903C2090903D20A0903E20B0903F2024
:1006C00020E030E040E05FE3C501B4010E94C806CD
:1006D000A70196010E94C406181654F48091402088
:1006E0009091412063E070E00E944F07CB0119C058
:1006F000A7019601C501B4010E94C406181654F45E
:10070000809140209091412099230CF40196959579
:10071000879507C0809140209091412002C080E0E1
:1007200090E0FF90EF90DF90CF90BF90AF909F90C0
:100730008F9008950097F1F480915A2090915B205A
:10074000009709F43EC020916020309161204091D3
:1007500062205091632060915C2070915D208091B7
:100760005E2090915F200E94C406181614F58FEF4A
:100770009FEF0895019701F58091422090914320C9
:100780000097F9F0209148203091492040914A206B
:1007900050914B20609144207091452080914620DB
:1007A000909147200E94C40618164CF48FEF9FEFDB
:1007B000089581E090E0089580E090E0089581E060
:1007C00090E00895CF93DF93CDB7DEB7CC5CD1092D
:1007D000CDBFDEBF0E9480012FEF87EA91E6215056
:1007E00080409040E1F700C0000040E656E060EA3B
:1007F00079E0CE0187539F4F0E942E0580E090E064
:10080000A0E4B0E48093482090934920A0934A202C
:10081000B0934B2080E090E0A0E8BFE3809360209D
:1008200090936120A0936220B09363208CE490E2C7
:100830000E94BC0484E390E20E94BC040F2EF2E408
:10084000CF2EF0E2DF2EF02D0AE510E20F2EF0E0C1
:10085000AF2EF0E2BF2EF02DFE0131967F010F2E5C
:10086000F0E48F2EF6E09F2EF02D6894772477F831
:100870000E94FE01F60181818F9380818F93F801A0
:1008800081818F9380818F93BF92AF92FF92EF927D
:100890000E947D07C7010E94BA01CDBFDEBFF801EB
:1008A00080819181892B29F4F60180819181892BA6
:1008B00031F180E090E00E94D502682E81E090E066
:1008C0000E949A03582E80E090E00E949A03659C53
:1008D000402D11244158689E802D11246FE7680F28
:1008E000CE0187539F4F0E94E604F80180819181D9
:1008F000892B39F4F60180819181892B11F4F4015F
:100900007582FFEF29EF80E0F15020408040E1F751
:1009100000C00000ADCF8CE490E20E949D0484E30F
:1009200090E20E949D04089584E390E20E94BB043B
:100930008CE490E20E94BB040895FC0112821382B1
:1009400085E090E0808391834DEC5CEC6CEC7DE382
:10095000448355836683778340E050E060E07FE323
:10096000408751876287738782E390E08487958709
:10097000168617860895089521E030E0FC01268749
:1009800037870895FC01168617860895DC01ED91DE
:10099000FC911197818185FFFDCF80E88083ED91E7
:1009A000FC911197818185FFFDCF6083ED91FC91D2
:1009B0001197818185FFFDCF4083ED91FC9181816D
:1009C00085FFFDCF640F6F77608308950F931F93AA
:1009D000CF93DF93EC01842F6F3761F06F3720F4F2
:1009E0004FE7461B61E00BC066233CF441E8460F2D
:1009F00060E005C040E060E002C040E060E08F37AA
:100A000061F08F3720F40FE7081B15E00BC0882337
:100A10003CF401E8080F14E005C000E014E002C057
:100A200000E014E0CE010E94C604402F612FCE01E9
:100A30000E94C604DF91CF911F910F910895CF932B
:100A4000DF93EC0140E060E00E94C60440E064E017
:100A5000CE010E94C604DF91CF910895CF93DF931A
:100A6000EC01688379834A835B8388E0FA018183A0
:100A7000E881F98183E08583E881F9818FEC8683C1
:100A8000E881F9811782E881F98184818860848313
:100A9000FFEF23EC89E0F15020408040E1F700C0F7
:100AA0000000E881F9818AEA808344E16EE0CE01AA
:100AB0000E94C604CE010E941F05DF91CF910895C8
:100AC000FC01608371834283148613861686158623
:100AD00008955058BB27AA270ED01CC10DD130F065
:100AE00012D120F031F49F3F11F41EF402C10EF434
:100AF000E095E7FBF8C0E92F1ED180F3BA17620733
:100B000073078407950718F071F49EF536C10EF44B
:100B1000E0950B2EBA2FA02D0B01B90190010C010D
:100B2000CA01A0011124FF27591B99F0593F50F425
:100B3000503E68F11A16F040A22F232F342F44277D
:100B4000585FF3CF469537952795A795F040539575
:100B5000C9F77EF41F16BA0B620B730B840BBAF045
:100B60009150A1F0FF0FBB1F661F771F881FC2F7B0
:100B70000EC0BA0F621F731F841F48F487957795C4
:100B80006795B795F7959E3F08F0B3CF9395880F7B
:100B900008F09927EE0F9795879508950CD0BAC065
:100BA000B2D040F0A9D030F021F45F3F19F09BC0E3
:100BB0005111E4C09EC0BFD098F39923C9F35523C7
:100BC000B1F3951B550BBB27AA2762177307840740
:100BD00038F09F5F5F4F220F331F441FAA1FA9F3F6
:100BE00033D00E2E3AF0E0E830D091505040E695E8
:100BF000001CCAF729D0FE2F27D0660F771F881F49
:100C0000BB1F261737074807AB07B0E809F0BB0B37
:100C1000802DBF01FF2793585F4F2AF09E3F51055B
:100C200068F061C0ABC05F3FECF3983EDCF38695A3
:100C300077956795B795F7959F5FC9F7880F911DD1
:100C40009695879597F90895E1E0660F771F881FBD
:100C5000BB1F621773078407BA0720F0621B730B70
:100C6000840BBA0BEE1F88F7E0950895E89409C04D
:100C700097FB3EF490958095709561957F4F8F4FCF
:100C80009F4F9923A9F0F92F96E9BB279395F695E5
:100C9000879577956795B795F111F8CFFAF4BB0F63
:100CA00011F460FF1BC06F5F7F4F8F4F9F4F16C0C7
:100CB000882311F096E911C0772321F09EE8872F51
:100CC000762F05C0662371F096E8862F70E060E00D
:100CD0002AF09A95660F771F881FDAF7880F969586
:100CE000879597F9089597F99F6780E870E060E02D
:100CF00008959FEF80EC089500240A9416161706B5
:100D000018060906089500240A94121613061406FC
:100D100005060895092E0394000C11F4882352F05F
:100D2000BB0F40F4BF2B11F460FF04C06F5F7F4F17
:100D30008F4F9F4F089557FD9058440F551F59F0FE
:100D40005F3F71F04795880F97FB991F61F09F3FB8
:100D500079F087950895121613061406551FF2CFE1
:100D60004695F1DF08C0161617061806991FF1CF31
:100D700086957105610508940895E894BB27662758
:100D80007727CB0197F9089566D008F48FEF08957F
:100D90000BD0C0CFB1DF28F0B6DF18F0952309F0F3
:100DA000A2CFA7CF1124EACFC6DFA0F3959FD1F33E
:100DB000950F50E0551F629FF001729FBB27F00D09
:100DC000B11D639FAA27F00DB11DAA1F649F66275E
:100DD000B00DA11D661F829F2227B00DA11D621FAD
:100DE000739FB00DA11D621F839FA00D611D221F67
:100DF000749F3327A00D611D231F849F600D211D4B
:100E0000822F762F6A2F11249F5750408AF0E1F0ED
:100E100088234AF0EE0FFF1FBB1F661F771F881F36
:100E200091505040A9F79E3F510570F05CCFA6CF7E
:100E30005F3FECF3983EDCF3869577956795B79521
:100E4000F795E7959F5FC1F7FE2B880F911D96954B
:100E5000879597F90895990F0008550FAA0BE0E8B8
:100E6000FEEF16161706E807F907C0F0121613066C
:100E7000E407F50798F0621B730B840B950B39F4AC
:100E80000A2661F0232B242B252B21F408950A2612
:100E900009F4A140A6958FEF811D811D089597FB50
:100EA000072E16F4009407D077FD09D00E9463073F
:100EB00007FC05D03EF4909581959F4F089570955D
:100EC00061957F4F0895AA1BBB1B51E107C0AA1F64
:100ED000BB1FA617B70710F0A61BB70B881F991FDB
:100EE0005A95A9F780959095BC01CD010895EE0F14
:100EF000FF1F0590F491E02D0994AEE0B0E0E3E827
:100F0000F7E00C94250A0D891E8986E08C830983FD
:100F10001A838FEF9FE78D839E83AE01475E5F4FFD
:100F20006F89788DCE0101960E949F07EF81F88529
:100F3000E00FF11F10822E96E4E00C943E0AACE024
:100F4000B0E0E5EAF7E00C94170A7C016B018A0136
:100F5000FC0116821782838181FFBDC1CE010196FB
:100F60004C01F7019381F60193FD859193FF8191E7
:100F70006F01882309F4ABC1853239F493FD859163
:100F800093FF81916F01853229F4B70190E00E94AF
:100F90008709E7CF512C312C20E02032A0F48B328E
:100FA00069F030F4803259F0833269F420612CC04A
:100FB0008D3239F0803339F4216026C022602460FC
:100FC00023C0286021C027FD27C030ED380F3A30FC
:100FD00078F426FF06C0FAE05F9E300D1124532EF0
:100FE00013C08AE0389E300D1124332E20620CC0CD
:100FF0008E3221F426FD6BC1206406C08C3611F4BC
:10100000206802C0883641F4F60193FD859193FF74
:1010100081916F018111C1CF982F9F7D955493309D
:1010200028F40C5F1F4FFFE3F9830DC0833631F0C6
:10103000833771F0833509F05BC022C0F8018081ED
:1010400089830E5F1F4F44244394512C540115C0D3
:101050003801F2E06F0E711CF801A080B18026FF0C
:1010600003C0652D70E002C06FEF7FEFC5012C87D4
:101070000E947C092C0183012C852F77222E17C01A
:101080003801F2E06F0E711CF801A080B18026FFDC
:1010900003C0652D70E002C06FEF7FEFC5012C87A4
:1010A0000E9471092C012C852068222E830123FCCB
:1010B0001BC0832D90E048165906B0F4B70180E2BA
:1010C00090E00E9487093A94F4CFF50127FC8591BE
:1010D00027FE81915F01B70190E00E9487093110DE
:1010E0003A94F1E04F1A51084114510471F7E5C0E8
:1010F000843611F0893639F5F80127FF07C0608181
:101100007181828193810C5F1F4F08C06081718162
:10111000882777FD8095982F0E5F1F4F2F76B22E70
:1011200097FF09C090958095709561957F4F8F4F7F
:101130009F4F2068B22E2AE030E0A4010E94B90936
:10114000A82EA81844C0853729F42F7EB22E2AE095
:1011500030E025C0F22FF97FBF2E8F36C1F018F492
:10116000883579F0B4C0803719F0883721F0AFC0E6
:101170002F2F2061B22EB4FE0DC08B2D8460B82EAF
:1011800009C024FF0AC09F2F9660B92E06C028E030
:1011900030E005C020E130E002C020E132E0F8019B
:1011A000B7FE07C060817181828193810C5F1F4F00
:1011B00006C06081718180E090E00E5F1F4FA40146
:1011C0000E94B909A82EA818FB2DFF77BF2EB6FEE6
:1011D0000BC02B2D2E7FA51450F4B4FE0AC0B2FC18
:1011E00008C02B2D2E7E05C07A2C2B2D03C07A2C07
:1011F00001C0752C24FF0DC0FE01EA0DF11D808198
:10120000803311F4297E09C022FF06C073947394C1
:1012100004C0822F867809F0739423FD13C020FF49
:1012200006C05A2C731418F4530C5718732C7314EB
:1012300068F4B70180E290E02C870E9487097394DC
:101240002C85F5CF731410F4371801C0312C24FF0E
:1012500012C0B70180E390E02C870E9487092C859B
:1012600022FF17C021FF03C088E590E002C088E795
:1012700090E0B7010CC0822F867859F021FD02C0A2
:1012800080E201C08BE227FD8DE2B70190E00E9471
:101290008709A51438F4B70180E390E00E9487091C
:1012A0005A94F7CFAA94F401EA0DF11D8081B70199
:1012B00090E00E948709A110F5CF332009F451CEA8
:1012C000B70180E290E00E9487093A94F6CFF701D7
:1012D0008681978102C08FEF9FEF2C96E2E10C94FC
:1012E000300AFC010590615070400110D8F78095DC
:1012F00090958E0F9F1F0895FC01615070400190E2
:101300000110D8F7809590958E0F9F1F08950F9329
:101310001F93CF93DF93182F092FEB018B8181FD52
:1013200003C08FEF9FEF20C082FF10C04E815F810E
:101330002C813D81421753077CF4E881F9819F019C
:101340002F5F3F4F28833983108306C0E885F985D6
:10135000812F0995892B29F72E813F812F5F3F4FE0
:101360002E833F83812F902FDF91CF911F910F917B
:101370000895FA01AA27283051F1203181F1E8942B
:101380006F936E7F6E5F7F4F8F4F9F4FAF4FB1E078
:101390003ED0B4E03CD0670F781F891F9A1FA11D73
:1013A000680F791F8A1F911DA11D6A0F711D811D74
:1013B000911DA11D20D009F468943F912AE0269F39
:1013C00011243019305D3193DEF6CF010895462F98
:1013D0004770405D4193B3E00FD0C9F7F6CF462F79
:1013E0004F70405D4A3318F0495D31FD40524193E2
:1013F00002D0A9F7EACFB4E0A6959795879577959F
:101400006795BA95C9F700976105710508959B0125
:10141000AC010A2E06945795479537952795BA95AE
:10142000C9F7620F731F841F951FA01D08952F9287
:101430003F924F925F926F927F928F929F92AF9264
:10144000BF92CF92DF92EF92FF920F931F93CF93B1
:10145000DF93CDB7DEB7CA1BDB0BCDBFDEBF099470
:101460002A88398848885F846E847D848C849B8434
:10147000AA84B984C884DF80EE80FD800C811B8142
:10148000AA81B981CE0FD11DCDBFDEBFED01089578
:1014900011E0CEE6D1E004C0FE010E947907229659
:0A14A000C037D107C9F7F894FFCF59
:1014AA004C6F77657241637420456E61626C656446
:1014BA003A202564200D0A205570706572416374C4
:1014CA0020456E61626C65643A202564200D0A200D
:0414DA00200D0A00D7
:00000001FF
