S012000041726D436F6E74726F6C2E7372656311
S11300000C94B8000C94E0000C94E0000C94E00014
S11300100C94E0000C94E0000C94E0000C94E000DC
S11300200C94E0000C94E0000C94E0000C94E000CC
S11300300C94E0000C94E0000C94E0000C94E000BC
S11300400C94E0000C94E0000C94E0000C94E000AC
S11300500C94E0000C94E0000C94E0000C94E0009C
S11300600C94E0000C944D010C9419020C94E000E3
S11300700C94E0000C94E0000C94E0000C94E0007C
S11300800C94E0000C94E0000C94E0000C94E0006C
S11300900C94E0000C94E0000C94E0000C94E0005C
S11300A00C94E0000C94E0000C94E0000C94E0004C
S11300B00C94E0000C94E0000C94E0000C94E0003C
S11300C00C94E0000C94E0000C94E0000C94E0002C
S11300D00C94E0000C94E0000C94E0000C94E0001C
S11300E00C94E0000C94E0000C94E0000C94E0000C
S11300F00C94E0000C94E0000C94E0000C94E000FC
S11301000C94E0000C94E0000C94E0000C94E000EB
S11301100C94E0000C94E0000C94E0000C94E000DB
S11301200C94E0000C94E0000C94E0000C94E000CB
S11301300C94E0000C944C070C94E0000C94E00048
S11301400C94E0000C94E0000C94E0000C94E000AB
S11301500C94E0000C94E0000C94E0000C94E0009B
S11301600C94E0000C94E0000C94E000710782070A
S113017011241FBECFEFCDBFDFE2DEBF10E2A0E04F
S1130180B0E2EEE4F9E102C005900D92A231B107AC
S1130190D9F720E2A2E1B0E201C01D92AB37B20769
S11301A0E1F711E0CEE6D1E004C02297FE010E94FF
S11301B0960CCC36D107C9F70E9433050C949A0CDF
S11301C00C940000AAECB1E022E02C93FC01849191
S11301D01C9208950F931F93CF93DF93182F062F2C
S11301E08091000280FD1BC0C0E0D2E081E08883E2
S11301F084E0898380E18A831B8286E08C8380E2A9
S113020090E00E94E2008C8781E290E00E94E2008C
S11302108D878FE79CE00197F1F700C00000E0E0D4
S1130220F2E000A3110F110F110F11A312A280A16C
S1130230806880A386818823E9F3E0E0F2E0868188
S1130240868380A1806880A386818823E9F3E0E027
S1130250F2E08681868380899189DF91CF911F9115
S11302600F910895E0E0F9E087E08083118282E154
S11302709AE786A397A381E086830895CF93DF93BB
S1130280EC0103C0CE010E941A0ACE010E94120A98
S11302908111F8CFDF91CF9108951F920F920FB67D
S11302A00F9211242F933F934F935F936F937F93F8
S11302B08F939F93AF93BF93CF93DF93EF93FF936A
S11302C08CE690E20E94260A8CE690E20E94120AD2
S11302D0882379F0C0912520D0E08CE690E20E943A
S11302E01A0ACD5EDF4D8883809125208F5F80932D
S11302F02520809125208A3009F088C08CE690E280
S11303000E943E0190911B20809114207091152031
S11303106091162050911720409118203091192097
S113032020911A20872786278527842783278227D9
S1130330981353C0E4E1F0E2808183FB882780F9BD
S11303408093262080818470809327208081C1E05F
S1130350869581708C2780933B2020911620809174
S1130360152090E0820F911D8093332090933420C8
S1130370809118206091172070E0680F711D882704
S113038077FD8095982F0E94550B20E030E048ECD3
S113039052E40E94BA0AAB01BC0184E590E20E94D7
S11303A0BC0780911A206091192070E0680F711DBC
S11303B0882777FD8095982F0E94550B20E030E028
S11303C048EC52E40E94BA0AAB01BC018CE390E20F
S11303D00E94BC07C093282019C0E0EAF8E081819C
S11303E085FFFDCF8FEF8093A008E0EAF8E08181DC
S11303F085FFFDCF1092A008E0EAF8E0818185FF37
S1130400FDCF8FEF8093A00810922520FF91EF91EC
S1130410DF91CF91BF91AF919F918F917F916F9118
S11304205F914F913F912F910F900FBE0F901F90AE
S113043018951F920F920FB60F9211242F933F938A
S11304404F935F936F937F938F939F93AF93BF93D8
S1130450EF93FF938CE690E20E943B0AFF91EF91A9
S1130460BF91AF919F918F917F916F915F914F91C8
S11304703F912F910F900FBE0F901F90189588ED0C
S113048084BF82E080935000E0E5F0E0818181FF49
S1130490FDCF88ED84BF91E09093400084BFE0E5F8
S11304A0F0E0808184608083818182FFFDCFE0E57C
S11304B0F0E086818D7F8683E0E6F0E080818160D4
S11304C080830895E0E4F6E088E0818384E0828319
S11304D041E060EA78E08CE690E20E94090AE0914B
S11304E06C20F0916D2083E0858383818F7C806113
S11304F08383A0EAB8E08FEC16968C931697179630
S11305001C92848180618483848188608483E0EA8E
S1130510F0E08281816082830895CF93DF930E940B
S11305203F020E9462020E94320180EEE0E4F6E0A3
S11305308183E0E6F6E09FEF9183A0E0B6E01196B8
S11305408C931197C0E2D6E087E0898384E0129609
S11305508C93129798E012969C9312979A8320E1B9
S113056012962C93129730E4368390E216969C935D
S1130570169716963C93169730E815963C93268367
S11305809683868321E02D8392E09D838E83268348
S113059096837894DF91CF910895FC0120812223E2
S11305A059F0DC011196E0EAF8E0818185FFFDCF86
S11305B020832D912111F9CF0895EF92FF920F938B
S11305C01F93CF93DF938C01C7E0D0E0E12CF12C93
S11305D00115110539F461E081E00E94EA00E80E9A
S11305E0F91E09C00130110531F461E080E00E9478
S11305F0EA00E80EF91E8FE39FE10197F1F700C0CE
S113060000002197209721F7C70167E070E00E945E
S11306106C0CCB01DF91CF911F910F91FF90EF9064
S11306200895CF92DF92EF92FF922091682030914B
S1130630692040916A2050916B20609164207091F0
S1130640652080916620909167200E94550A6B0175
S11306507C0120E030E0A9010E94E10B181624F08F
S1130660F7FAF094F7F8F094A701960160915820F6
S11306707091592080915A2090915B200E94E10B47
S1130680181644F4E6E5F0E28081918101968083B6
S1130690918304C01092562010925720209150202C
S11306A030915120409152205091532060914C2020
S11306B070914D2080914E2090914F200E94550AB8
S11306C06B017C0120E030E0A9010E94E10B1816C7
S11306D024F0F7FAF094F7F8F094A70196016091EA
S11306E040207091412080914220909143200E94AB
S11306F0E10B181644F4EEE3F0E280819181019657
S11307008083918304C010923E2010923F20209158
S11307103E2030913F2080913C2090913D2028172D
S1130720390724F08CE390E20E94B8072091562008
S11307303091572080913C2090913D202817390713
S113074024F084E590E20E94B80780E090E00E94E3
S1130750DD02BC01882777FD8095982F0E94550BF8
S11307602FE135E848E652E40E94BA0A25E83BEE58
S113077041ED5EE30E94550A609364207093652006
S1130780809366209093672081E090E00E94DD02D0
S1130790BC01882777FD8095982F0E94550B2FE187
S11307A035E848E652E40E94BA0A25E83BEE41EDFA
S11307B05EE30E94550A60934C2070934D20809311
S11307C04E2090934F20FF90EF90DF90CF900895AC
S11307D04F925F926F927F928F929F92AF92BF924D
S11307E0CF92DF92EF92FF92009709F071C0409090
S11307F0642050906520609066207090672020915E
S113080068203091692040916A2050916B20C30187
S1130810B2010E94550A6B017C0120E030E0A9017D
S11308200E94E10B181624F0F7FAF094F7F8F0940C
S113083080905C2090905D20A0905E20B0905F201E
S113084020E030E040E05FE3C501B4010E94E50B25
S1130850A70196010E94E10B181654F480916020C0
S11308609091612063E070E00E946C0CCB01A6C003
S1130870209168203091692040916A2050916B202A
S1130880C301B2010E94550A6B017C0120E030E0F3
S1130890A9010E94E10B181624F0F7FAF094F7F876
S11308A0F094A7019601C501B4010E94E10B18164A
S11308B054F4809160209091612099230CF4019666
S11308C0959587957BC0809160209091612076C03A
S11308D0019709F071C040904C2050904D206090D9
S11308E04E2070904F202091502030915120409103
S11308F0522050915320C301B2010E94550A6B014A
S11309007C0120E030E0A9010E94E10B181624F0DC
S1130910F7FAF094F7F8F0948090442090904520F2
S1130920A0904620B090472020E030E040E05FE314
S1130930C501B4010E94E50BA70196010E94E10BD9
S1130940181654F4809148209091492063E070E097
S11309500E946C0CCB0132C0209150203091512068
S11309604091522050915320C301B2010E94550A74
S11309706B017C0120E030E0A9010E94E10B181614
S113098024F0F7FAF094F7F8F094A7019601C50162
S1130990B4010E94E10B181654F480914820909100
S11309A0492099230CF401969595879507C0809169
S11309B048209091492002C080E090E0FF90EF90A1
S11309C0DF90CF90BF90AF909F908F907F906F906B
S11309D05F904F9008950097F1F480916220909178
S11309E06320009709F43EC020916820309169206B
S11309F040916A2050916B20609164207091652031
S1130A0080916620909167200E94E10B181614F5DE
S1130A108FEF9FEF0895019701F580914A209091FF
S1130A204B200097F9F020915020309151204091B3
S1130A3052205091532060914C2070914D20809110
S1130A404E2090914F200E94E10B18164CF48FEF2A
S1130A509FEF089581E090E0089580E090E008958C
S1130A6081E090E00895CF93DF9300D000D0CDB71C
S1130A70DEB70E948D022FEF87EA91E62150804075
S1130A809040E1F700C0000040E656E060EA79E0FB
S1130A90CE0101960E94250980E090E0A0E4B0E434
S1130AA08093502090935120A0935220B0935320D0
S1130AB080E090E0A0E6B0E4809368209093692001
S1130AC0A0936A20B0936B20E0E0F6E0808584FF79
S1130AD0FDCF84E590E20E94B2078CE390E20E948D
S1130AE0B2070F2EF2E6CF2EF0E2DF2EF02D0F2EFE
S1130AF0FAE4EF2EF0E2FF2EF02D00E016E031C014
S1130B000E94110381E090E00E94E803A82E81E096
S1130B1090E00E94EB04982E80E090E00E94E803AD
S1130B20B82E80E090E00E94EB049A9C402D1124A2
S1130B3041588B9D802D11246FE7680FCE010196DB
S1130B400E94DD08D80118968C9184FD0AC04FE7F5
S1130B506FE7CE0101960E94DD08F801808584FFCD
S1130B60F6CFD6018D919C91892B51F6F7018081A6
S1130B709181892B29F689E290E20E94D70781E0CE
S1130B80E0E6F6E0868360E070E089E290E20E94AD
S1130B90950885E390E20E94030A61E070E085E332
S1130BA090E20E9464090F2EF0EAEF2EF8E0FF2E87
S1130BB0F02D00E016E00F2EF2E6CF2EF0E2DF2E4D
S1130BC0F02D0F2EFAE4AF2EF0E2BF2EF02D412CC3
S1130BD0512C6894662466F8762C80911220811139
S1130BE02FC080E090E20E94CD02FFEF23ED80E36E
S1130BF0F15020408040E1F700C0000080911320B4
S1130C008237D9F481E080931220D70111968C9118
S1130C10119785FFFACF82E78C93809121209091E0
S1130C202220A0912320B091242080931D20909312
S1130C301E20A0931F20B093202010922520CDCFFA
S1130C40813059F680912820882339F2809126201A
S1130C50882309F477C0409250205092512060922A
S1130C6052207092532080E090E0A0E6B0E480939C
S1130C70682090936920A0936A20B0936B2084E548
S1130C8090E20E94B2078CE390E20E94B20731C066
S1130C900E94110381E090E00E94E803882E81E025
S1130CA090E00E94EB04382E80E090E00E94E8037C
S1130CB0982E80E090E00E94EB04389C402D112493
S1130CC04158899D802D11246FE7680FCE0101964C
S1130CD00E94DD08D80118968C9184FD0AC04FE764
S1130CE06FE7CE0101960E94DD08F801808584FF3C
S1130CF0F6CFD6018D919C91892B51F6F501808117
S1130D009181892B29F689E290E20E94D70781E03C
S1130D10E0E6F6E0868360E070E089E290E20E941B
S1130D20950880913B20882351F085E390E20E944E
S1130D30030A61E070E085E390E20E946409109286
S1130D40262074C080E88093450684E590E20E94E2
S1130D50B2078CE390E20E94B20760913320709155
S1130D60342089E290E20E9495080E94110331C068
S1130D700E94110380E090E00E94E803882E81E045
S1130D8090E00E94EB04382E80E090E00E94E8039B
S1130D90982E80E090E00E94EB04389C402D1124B2
S1130DA04158899D802D11246FE7680FCE0101966B
S1130DB00E94DD08D80118968C9184FD0AC04FE783
S1130DC06FE7CE0101960E94DD08F801808584FF5B
S1130DD0F6CFD6018D919C91892B51F6F501808136
S1130DE09181892B29F64FE76FE7CE0101960E9486
S1130DF0DD0880913B2081110BC085E390E20E94C5
S1130E00030A60E070E085E390E20E9464090EC08A
S1130E1080913B20813051F485E390E20E94030AE3
S1130E2061E070E085E390E20E946409109228205A
S1130E3080E880934606D70111968C91119785FF1F
S1130E40FACF8FEF8C93F701818185FFFCCFD80116
S1130E5018968C9183FD02C083E001C082E0F70103
S1130E608083D70111968C91119785FFFACF8FEF6C
S1130E708C93109225208091212090912220A09182
S1130E802320B091242080931D2090931E20A093B2
S1130E901F20B0932020A1CE1F920F920FB60F9265
S1130EA011248F939F93AF93BF93809121209091AE
S1130EB02220A0912320B09124200196A11DB11DD0
S1130EC08093212090932220A0932320B093242068
S1130ED0BF91AF919F918F910F900FBE0F901F9074
S1130EE0189584E590E20E9493078CE390E20E94B7
S1130EF0930785E390E20E94570989E290E20E94F9
S1130F00C207089589E290E20E94D60785E390E241
S1130F100E9463098CE390E20E94B10784E590E2A9
S1130F200E94B1070895FC011282138285E090E0CB
S1130F30808391834DEC5CEC6CE47EE344835583C5
S1130F406683778340E050E060E47FE34087518725
S1130F506287738784E690E0848795871686178670
S1130F600895089521E030E0FC012687378708952D
S1130F70FC01168617860895FC01448B558B668BFD
S1130F80778B0895FC0145E85BE261E873E44483F0
S1130F9055836683778340E050E060E87FEB4083CD
S1130FA05183628373831086118608950895CF93C5
S1130FB0DF93EC0181E0E0E6F6E0868360E070E038
S1130FC020E0E0E0F6E0A0E6B6E031E052E0808523
S1130FD084FFFDCF808582FF10C0211110C01596BB
S1130FE03C9315972FEF4FE285E721504040804016
S1130FF0E1F700C00000232F02C0222341F06F5FFD
S11310007F4F673971051CF0808582FD13C01696E9
S11310105C9316978FE795E20197F1F700C0000003
S113102015965C9315978FE795E20197F1F700C049
S11310300000CDCF82E0E0E6F6E086838FE795E21C
S11310400197F1F700C0000082E085838FE795E205
S11310500197F1F700C0000018861986882777FDEC
S11310608095982F0E94550B2C813D814E815F8184
S11310700E94BA0A688379838A839B839FEF2FE255
S113108045E7915020404040E1F700C00000DF9167
S1131090CF910895CF93DF93EC01CB011816190675
S11310A02CF421E0E0E6F6E0268304C021E0E0E64B
S11310B0F6E02583BC01992324F466277727681B6F
S11310C0790B882777FD8095982F0E94550B2881EE
S11310D039814A815B810E94E50B0E94220B16161E
S11310E0170604F580E090E0E0E0F6E0A0E6B6E064
S11310F032E0208524FFFDCF16963C931697CFEF60
S1131100D8E12197F1F700C0000015963C9315979C
S1131110CFE5D2E22197F1F700C0000001968617CF
S1131120970739F7DF91CF910895CF92DF92EF922D
S1131130FF92CF93DF93EC01882777FD8095982F5A
S11311400E94550B2BE734E148E052E40E94560A12
S11311500E94220B6B017C0188859985B601681B6E
S1131160790BCE010E944A08C886D986DF91CF91B7
S1131170FF90EF90DF90CF900895DC01ED91FC910A
S11311801197818185FFFDCF80E88083ED91FC91EB
S11311901197818185FFFDCF6083ED91FC911197BB
S11311A0818185FFFDCF4083ED91FC91818185FF95
S11311B0FDCF640F6F77608308950F931F93CF93D0
S11311C0DF93EC01842F6F3761F06F3720F44FE722
S11311D0461B61E00BC066233CF441E8460F60E027
S11311E005C040E060E002C040E060E08F3761F09D
S11311F08F3720F40FE7081B15E00BC088233CF45D
S113120001E8080F14E005C000E014E002C000E0AB
S113121014E0CE010E94BD08402F612FCE010E9430
S1131220BD08DF91CF911F910F910895CF93DF9364
S1131230EC0140E060E00E94BD0840E064E0CE01C3
S11312400E94BD08DF91CF910895CF93DF93EC0105
S1131250688379834A835B8388E0FA018183E88128
S1131260F98183E08583E881F9818FEC8683E881C5
S1131270F9811782E881F981848188608483FFEF92
S113128023EC89E0F15020408040E1F700C00000E9
S1131290E881F9818AEA808344E16EE0CE010E940C
S11312A0BD08CE010E941609DF91CF910895FC017B
S11312B0108211828FEF9FEF8283938381E090E00D
S11312C08483958308950895CF93DF93EC01288157
S11312D03981232B09F494C06230710508F090C061
S11312E02A813B812617370709F48AC06A837B83E6
S11312F06115710529F420E1E0E6F6E0258307C0D5
S11313006130710521F420E1E0E6F6E02683FC017A
S113131024813581232B11F528E833E1E0E0F6E060
S1131320A0E6B6E050E2408544FFFDCF15965C93FD
S11313301597CFE8D1E02197F1F700C00000169689
S11313405C931697CFE9DFE02197F1F700C0000026
S1131350215031092115310531F703C0FC011482F4
S113136015826115710519F540E256E0E0E0F6E0FA
S1131370A0E6B6E030E213C0208524FFFDCF159629
S11313803C93159725ED2A95F1F7000016963C93AA
S11313901697CFE3D1E02197F1F700C00000EA01EE
S11313A0288523FD2AC0208523FF27C0E5CF61308F
S11313B0710519F5E0E2F6E0208523FD1EC0E0E0AA
S11313C0F6E0A0E6B6E030E240E256E0208524FFF5
S11313D0FDCF15963C931597D5EDDA95F1F70000FE
S11313E016963C931697CFE3D1E02197F1F700C00E
S11313F00000EA01288523FFE9CFFC011082118255
S1131400DF91CF91089521E030E0FC012083318306
S11314100895FC01608371834283148613861686C3
S113142015860895FC012385948581E0291301C064
S113143080E00895FC018485DF01A80FB11D139697
S11314408C9194859F5F937094870895FC018385A4
S11314508F5F83709485A081B1812C91891749F0A5
S11314609385DF01A90FB11D13962C93838781E027
S1131470089580E00895FC0186859585981307C03A
S11314800190F081E02D83818C7F8383089586858C
S1131490DF01A80FB11D17968C91A081B1818C93A7
S11314A086858F5F8370868708955058BB27AA2747
S11314B00ED04DC13ED130F043D120F031F49F3FE6
S11314C011F41EF433C10EF4E095E7FB29C1E92FB2
S11314D04FD180F3BA17620773078407950718F092
S11314E071F49EF567C10EF4E0950B2EBA2FA02D72
S11314F00B01B90190010C01CA01A0011124FF27BD
S1131500591B99F0593F50F4503E68F11A16F040B7
S1131510A22F232F342F4427585FF3CF46953795B6
S11315202795A795F0405395C9F77EF41F16BA0B7B
S1131530620B730B840BBAF09150A1F0FF0FBB1F29
S1131540661F771F881FC2F70EC0BA0F621F731F72
S1131550841F48F4879577956795B795F7959E3FCF
S113156008F0B3CF9395880F08F09927EE0F97955D
S1131570879508950CD0EBC0E3D040F0DAD030F07A
S113158021F45F3F19F0CCC0511115C1CFC0F0D088
S113159098F39923C9F35523B1F3951B550BBB2736
S11315A0AA2762177307840738F09F5F5F4F220FE3
S11315B0331F441FAA1FA9F333D00E2E3AF0E0E8DC
S11315C030D091505040E695001CCAF729D0FE2F28
S11315D027D0660F771F881FBB1F261737074807BA
S11315E0AB07B0E809F0BB0B802DBF01FF27935870
S11315F05F4F2AF09E3F510568F092C0DCC05F3F08
S1131600ECF3983EDCF3869577956795B795F79557
S11316109F5FC9F7880F911D9695879597F908954F
S1131620E1E0660F771F881FBB1F621773078407EB
S1131630BA0720F0621B730B840BBA0BEE1F88F7FA
S1131640E095089504D06894B111B5C0089598D078
S113165088F09F5790F0B92F9927B751A0F0D1F097
S1131660660F771F881F991F1AF0BA95C9F712C021
S1131670B13081F09FD0B1E008959CC0672F782FDE
S11316808827B85F39F0B93FCCF38695779567958D
S1131690B395D9F73EF490958095709561957F4FF9
S11316A08F4F9F4F0895E89409C097FB3EF490959F
S11316B08095709561957F4F8F4F9F4F9923A9F027
S11316C0F92F96E9BB279395F695879577956795B6
S11316D0B795F111F8CFFAF4BB0F11F460FF1BC0FA
S11316E06F5F7F4F8F4F9F4F16C0882311F096E98D
S11316F011C0772321F09EE8872F762F05C066233B
S113170071F096E8862F70E060E02AF09A95660FF3
S1131710771F881FDAF7880F9695879597F90895AC
S113172097F99F6780E870E060E008959FEF80EC90
S1131730089500240A941616170618060906089533
S113174000240A9412161306140605060895092E99
S11317500394000C11F4882352F0BB0F40F4BF2B08
S113176011F460FF04C06F5F7F4F8F4F9F4F089548
S113177057FD9058440F551F59F05F3F71F047953E
S1131780880F97FB991F61F09F3F79F08795089523
S1131790121613061406551FF2CF4695F1DF08C042
S11317A0161617061806991FF1CF8695710561055F
S11317B008940895E894BB2766277727CB0197F907
S11317C0089566D008F48FEF08950BD0C0CFB1DF31
S11317D028F0B6DF18F0952309F0A2CFA7CF112483
S11317E0EACFC6DFA0F3959FD1F3950F50E0551FC4
S11317F0629FF001729FBB27F00DB11D639FAA2762
S1131800F00DB11DAA1F649F6627B00DA11D661FB0
S1131810829F2227B00DA11D621F739FB00DA11DD1
S1131820621F839FA00D611D221F749F3327A00D8B
S1131830611D231F849F600D211D822F762F6A2F27
S113184011249F5750408AF0E1F088234AF0EE0FAC
S1131850FF1FBB1F661F771F881F91505040A9F7B9
S11318609E3F510570F05CCFA6CF5F3FECF3983EEE
S1131870DCF3869577956795B795F795E7959F5F20
S1131880C1F7FE2B880F911D9695879597F90895BA
S1131890990F0008550FAA0BE0E8FEEF161617067D
S11318A0E807F907C0F012161306E407F50798F0E5
S11318B0621B730B840B950B39F40A2661F0232BFE
S11318C0242B252B21F408950A2609F4A140A6957A
S11318D08FEF811D811D089597FB072E16F4009448
S11318E007D077FD09D00E94800C07FC05D03EF498
S11318F0909581959F4F0895709561957F4F0895B8
S1131900AA1BBB1B51E107C0AA1FBB1FA617B70721
S113191010F0A61BB70B881F991F5A95A9F780953D
S11319209095BC01CD010895EE0FFF1F0590F49131
S1131930E02D099411E0CEE6D1E004C0FE010E943E
S1111940960C2296C037D107C9F7F894FFCF52
S113194E49443A2041726D436F6E74726F6C0D0A86
S105195E000083
S9030000FC
