:100000000C94B8000C94D5000C94D5000C94D50039
:100010000C94D5000C94D5000C94D5000C94D5000C
:100020000C94D5000C94D5000C94D5000C94D500FC
:100030000C94D5000C94D5000C94D5000C94D500EC
:100040000C94D5000C94D5000C94D5000C94D500DC
:100050000C94D5000C94D5000C94D5000C94D500CC
:100060000C94D5000C94D5000C94D5000C94D500BC
:100070000C94D5000C94D5000C94D5000C94D500AC
:100080000C94D5000C94D5000C94D5000C94D5009C
:100090000C94D5000C94D5000C94D5000C94D5008C
:1000A0000C94D5000C94D5000C94D5000C94D5007C
:1000B0000C94D5000C94D5000C94D5000C94D5006C
:1000C0000C94D5000C94D5000C94D5000C94D5005C
:1000D0000C94D5000C94D5000C94D5000C94D5004C
:1000E0000C94D5000C94D5000C94D5000C94D5003C
:1000F0000C94D5000C94D5000C94D5000C94D5002C
:100100000C94D5000C94D5000C94D5000C94D5001B
:100110000C94D5000C94D5000C94D5000C94D5000B
:100120000C94D5000C94D5000C94D5000C94D500FB
:100130000C94D5000C94D5000C94D5000C94D500EB
:100140000C94D5000C94D5000C94D5000C94D500DB
:100150000C94D5000C94D5000C94D5000C94D500CB
:100160000C94D5000C94D5000C94D5008B049C0401
:1001700011241FBECFEFCDBFDFE2DEBF20E2A0E043
:10018000B0E201C01D92AF34B207E1F711E0CEE654
:10019000D1E004C02297FE010E94A708CC36D10707
:1001A000C9F70E94C7030C94AB080C940000AAEC9A
:1001B000B1E022E02C93FC0184911C9208950F93EE
:1001C0001F93CF93DF93182F062F8091000280FD9D
:1001D0001BC0C0E0D2E081E0888384E0898380E1B5
:1001E0008A831B8286E08C8380E290E00E94D700A5
:1001F0008C8781E290E00E94D7008D878FE79CE09A
:100200000197F1F700C00000E0E0F2E000A3110F59
:10021000110F110F11A312A280A1806880A3868103
:100220008823E9F3E0E0F2E08681868380A180689C
:1002300080A386818823E9F3E0E0F2E0868186836B
:1002400080899189DF91CF911F910F91089588ED59
:1002500084BF82E080935000E0E5F0E0818181FF7F
:10026000FDCF88ED84BF91E09093400084BFE0E52E
:10027000F0E0808184608083818182FFFDCFE0E5B2
:10028000F0E086818D7F8683E0E6F0E0808181600A
:1002900080830895E0E4F6E088E0818384E082834F
:1002A00041E060EA78E080E490E20E945D06E0913F
:1002B0004020F091412083E0858383818F7C8061A1
:1002C0008383A0EAB8E08FEC16968C931697179666
:1002D0001C92848180618483848188608483E0EAC5
:1002E000F0E08281816082830895CF93DF930E9442
:1002F00027010E944A0180EEE0E4F6E08183E0E617
:10030000F6E09FEF9183A0E0B6E011968C931197F1
:10031000C0E2D6E087E0898384E012968C9312973E
:1003200098E012969C9312979A8320E4258390E29A
:1003300016969C93169716962C93169720E8169669
:100340002C9320E126839683868321E02D8392E0FF
:100350009E838E8326839683DF91CF910895EF92BB
:10036000FF920F931F93CF93DF938C01C7E0D0E0F0
:10037000E12CF12C0115110539F461E081E00E94B6
:10038000DF00E80EF91E09C00130110531F461E00B
:1003900080E00E94DF00E80EF91E8FE39FE10197E5
:1003A000F1F700C000002197209721F7C70167E00F
:1003B00070E00E947D08CB01DF91CF911F910F91DA
:1003C000FF90EF900895CF92DF92EF92FF922091ED
:1003D0003C2030913D2040913E2050913F20609143
:1003E00038207091392080913A2090913B200E94D2
:1003F00066066B017C0120E030E0A9010E94F20753
:10040000181624F0F7FAF094F7F8F094A701960183
:1004100060912C2070912D2080912E2090912F2082
:100420000E94F207181644F4EAE2F0E2808191811A
:1004300001968083918304C010922A2010922B2071
:100440002091242030912520409126205091272072
:100450006091202070912120809122209091232072
:100460000E9466066B017C0120E030E0A9010E9439
:10047000F207181624F0F7FAF094F7F8F094A701B1
:100480009601609114207091152080911620909112
:1004900017200E94F207181644F4E2E1F0E280818E
:1004A000918101968083918304C010921220109252
:1004B00013202091122030911320809110209091D0
:1004C00011202817390724F080E190E20E94CC0423
:1004D00020912A2030912B20809110209091112082
:1004E0002817390724F088E290E20E94CC0480E0CB
:1004F00090E00E94AF01BC01882777FD8095982F7E
:100500000E9466072FE135E848E652E40E94CB06D8
:1005100025E83BEE41ED5EE30E94660660933820DD
:100520007093392080933A2090933B2081E090E0B3
:100530000E94AF01BC01882777FD8095982F0E940B
:1005400066072FE135E848E652E40E94CB0625E82D
:100550003BEE41ED5EE30E946606609320207093BF
:1005600021208093222090932320FF90EF90DF9012
:10057000CF9008958F929F92AF92BF92CF92DF92C9
:10058000EF92FF92009709F056C020913C203091E5
:100590003D2040913E2050913F2060913820709145
:1005A000392080913A2090913B200E9466066B0191
:1005B0007C0120E030E0A9010E94F207181624F027
:1005C000F7FAF094F7F8F094809030209090312072
:1005D000A0903220B090332020E030E040E05FE394
:1005E000C501B4010E94F607A70196010E94F20717
:1005F000181654F4809134209091352063E070E017
:100600000E947D08CB0172C0A7019601C501B4010B
:100610000E94F207181654F48091342090913520EE
:1006200099230CF401969595879560C080913420AC
:10063000909135205BC0019709F056C0209124208D
:100640003091252040912620509127206091202034
:100650007091212080912220909123200E94660693
:100660006B017C0120E030E0A9010E94F20718161E
:1006700024F0F7FAF094F7F8F09480901820909016
:100680001920A0901A20B0901B2020E030E040E01C
:100690005FE3C501B4010E94F607A70196010E941D
:1006A000F207181654F480911C2090911D2063E0ED
:1006B00070E00E947D08CB0119C0A7019601C50119
:1006C000B4010E94F207181654F480911C209091F6
:1006D0001D2099230CF401969595879507C080916C
:1006E0001C2090911D2002C080E090E0FF90EF90D0
:1006F000DF90CF90BF90AF909F908F90089500971C
:10070000F1F48091362090913720009709F43EC093
:1007100020913C2030913D2040913E2050913F203F
:10072000609138207091392080913A2090913B203F
:100730000E94F207181614F58FEF9FEF08950197A6
:1007400001F580911E2090911F200097F9F02091D3
:10075000242030912520409126205091272060911F
:1007600020207091212080912220909123200E94AE
:10077000F20718164CF48FEF9FEF089581E090E098
:10078000089580E090E0089581E090E00895CF938F
:10079000DF9300D000D0CDB7DEB70E9475012FEFF8
:1007A00087EA91E6215080409040E1F700C00000C8
:1007B00040E656E060EA79E0CE0101960E941E060E
:1007C00080E090E0A0E0B0E4809324209093252086
:1007D000A0932620B093272080E090E0A0E6B0E42C
:1007E00080933C2090933D20A0933E20B0933F20E7
:1007F00080E090E20E94E50481E0E0E6F6E0868396
:100800006AE570E080E090E20E948E05EFEFFFE481
:1008100023ECE150F0402040E1F700C000006DE221
:1008200070E080E090E20E948E058FEF9FE4E3ECA1
:1008300081509040E040E1F700C0000060E070E0CF
:1008400080E090E20E948E05FFEF2FE483ECF150F0
:1008500020408040E1F700C0000064EB70E080E0E1
:1008600090E20E948E0584E0E0E6F6E0858306E3F0
:1008700010E20F2EFEE1EF2EF0E2FF2EF02D0F2EF4
:10088000F0E4CF2EF6E0DF2EF02D6894992497F84F
:100890000E94E301F80180819181892B29F4F701FD
:1008A00080819181892BE1F080E090E00E94BA0282
:1008B000B82E81E090E00E947F03A82E80E090E0B7
:1008C0000E947F03BA9C402D11244158B89E802D70
:1008D00011246FE7680FCE0101960E94D60508C06B
:1008E000F60195824FE76FE7CE0101960E94D6058B
:1008F000FFEF29E688E1F15020408040E1F700C099
:1009000000009FEFE9EFF0E09150E040F040E1F7A8
:1009100000C00000BDCF88E290E20E94AD0480E1FB
:1009200090E20E94AD048AE090E20E94500680E0CE
:1009300090E20E94D004089580E090E20E94E404D6
:100940008AE090E20E945C0680E190E20E94CB0483
:1009500088E290E20E94CB040895FC011282138287
:1009600085E090E0808391834DEC5CEC6CEC7DE362
:10097000448355836683778340E050E060E47FE3FF
:10098000408751876287738782E390E084879587E9
:100990001686178608950895FC0116861786089511
:1009A000FC0145E85BE261E873E4448355836683B8
:1009B000778340E050E060E87FEB408351836283BF
:1009C00073831086118608950895CF93DF93EC0109
:1009D00081E0E0E6F6E0868360E070E020E0A0E001
:1009E000B6E031E052E018968C91189782FF0EC065
:1009F00021110EC035832FEF43EC89E02150404098
:100A00008040E1F700C00000232F02C0222351F0F4
:100A10006F5F7F4F673971052CF018968C9118978E
:100A200082FD12C056838FE39FE10197F1F700C06A
:100A3000000055839FEF49EF80E091504040804097
:100A4000E1F700C00000CFCF82E0E0E6F6E0868369
:100A50008FE39FE10197F1F700C0000082E08583FA
:100A60009FEF29EF40E0915020404040E1F700C067
:100A70000000882777FD8095982F0E9466072C81BB
:100A80003D814E815F810E94CB06688379838A8392
:100A90009B83DF91CF910895CF93DF93EC01CB013E
:100AA000181619062CF421E0E0E6F6E0268304C0CF
:100AB00021E0E0E6F6E02583BC01992324F46627D3
:100AC0007727681B790B882777FD8095982F0E94E0
:100AD0006607288139814A815B810E94F6070E945E
:100AE000330716161706BCF480E090E0E0E6F6E067
:100AF00022E02683AFE3BFE11197F1F700C00000C9
:100B00002583AFEBBAED1197F1F700C00000019615
:100B10008617970771F7DF91CF910895CF92DF92F3
:100B2000EF92FF92CF93DF93EC01882777FD8095BA
:100B3000982F0E9466072BE734E148E052E40E94B8
:100B400067060E9433076B017C0188859985B60191
:100B5000681B790BCE010E944C05C886D986DF91AF
:100B6000CF91FF90EF90DF90CF900895DC01ED9151
:100B7000FC911197818185FFFDCF80E88083ED9105
:100B8000FC911197818185FFFDCF6083ED91FC91F0
:100B90001197818185FFFDCF4083ED91FC9181818B
:100BA00085FFFDCF640F6F77608308950F931F93C8
:100BB000CF93DF93EC01842F6F3761F06F3720F410
:100BC0004FE7461B61E00BC066233CF441E8460F4B
:100BD00060E005C040E060E002C040E060E08F37C8
:100BE00061F08F3720F40FE7081B15E00BC0882356
:100BF0003CF401E8080F14E005C000E014E002C076
:100C000000E014E0CE010E94B605402F612FCE0116
:100C10000E94B605DF91CF911F910F910895CF9358
:100C2000DF93EC0140E060E00E94B60540E064E044
:100C3000CE010E94B605DF91CF910895CF93DF9347
:100C4000EC01688379834A835B8388E0FA018183BE
:100C5000E881F98183E08583E881F9818FEC8683DF
:100C6000E881F9811782E881F98184818860848331
:100C7000FFEF23EC89E0F15020408040E1F700C015
:100C80000000E881F9818AEA808344E16EE0CE01C8
:100C90000E94B605CE010E940F06DF91CF91089504
:100CA000FC01108211828FEF9FEF8283938381E09A
:100CB00090E08483958308950895FC016083718397
:100CC0004283148613861686158608955058BB27CE
:100CD000AA270ED04DC13ED130F043D120F031F4DF
:100CE0009F3F11F41EF433C10EF4E095E7FB29C1D8
:100CF000E92F4FD180F3BA1762077307840795076E
:100D000018F071F49EF567C10EF4E0950B2EBA2F22
:100D1000A02D0B01B90190010C01CA01A001112401
:100D2000FF27591B99F0593F50F4503E68F11A16AD
:100D3000F040A22F232F342F4427585FF3CF46953E
:100D400037952795A795F0405395C9F77EF41F1660
:100D5000BA0B620B730B840BBAF09150A1F0FF0F2A
:100D6000BB1F661F771F881FC2F70EC0BA0F621F16
:100D7000731F841F48F4879577956795B795F79506
:100D80009E3F08F0B3CF9395880F08F09927EE0F98
:100D90009795879508950CD0EBC0E3D040F0DAD05A
:100DA00030F021F45F3F19F0CCC0511115C1CFC014
:100DB000F0D098F39923C9F35523B1F3951B550B44
:100DC000BB27AA2762177307840738F09F5F5F4F1E
:100DD000220F331F441FAA1FA9F333D00E2E3AF05F
:100DE000E0E830D091505040E695001CCAF729D079
:100DF000FE2F27D0660F771F881FBB1F26173707C8
:100E00004807AB07B0E809F0BB0B802DBF01FF27F7
:100E100093585F4F2AF09E3F510568F092C0DCC0A6
:100E20005F3FECF3983EDCF3869577956795B79531
:100E3000F7959F5FC9F7880F911D9695879597F94C
:100E40000895E1E0660F771F881FBB1F62177307C5
:100E50008407BA0720F0621B730B840BBA0BEE1FDA
:100E600088F7E095089504D06894B111B5C008954D
:100E700098D088F09F5790F0B92F9927B751A0F0DC
:100E8000D1F0660F771F881F991F1AF0BA95C9F71E
:100E900012C0B13081F09FD0B1E008959CC0672F9F
:100EA000782F8827B85F39F0B93FCCF386957795CE
:100EB0006795B395D9F73EF49095809570956195B7
:100EC0007F4F8F4F9F4F0895E89409C097FB3EF4E2
:100ED00090958095709561957F4F8F4F9F4F992387
:100EE000A9F0F92F96E9BB279395F6958795779505
:100EF0006795B795F111F8CFFAF4BB0F11F460FFC5
:100F00001BC06F5F7F4F8F4F9F4F16C0882311F01C
:100F100096E911C0772321F09EE8872F762F05C030
:100F2000662371F096E8862F70E060E02AF09A95CB
:100F3000660F771F881FDAF7880F9695879597F9C0
:100F4000089597F99F6780E870E060E008959FEF4B
:100F500080EC089500240A94161617061806090650
:100F6000089500240A94121613061406050608951F
:100F7000092E0394000C11F4882352F0BB0F40F4A7
:100F8000BF2B11F460FF04C06F5F7F4F8F4F9F4FE7
:100F9000089557FD9058440F551F59F05F3F71F069
:100FA0004795880F97FB991F61F09F3F79F08795D0
:100FB0000895121613061406551FF2CF4695F1DF59
:100FC00008C0161617061806991FF1CF86957105E9
:100FD000610508940895E894BB2766277727CB011D
:100FE00097F9089566D008F48FEF08950BD0C0CF1D
:100FF000B1DF28F0B6DF18F0952309F0A2CFA7CF14
:101000001124EACFC6DFA0F3959FD1F3950F50E0EE
:10101000551F629FF001729FBB27F00DB11D639FAA
:10102000AA27F00DB11DAA1F649F6627B00DA11D50
:10103000661F829F2227B00DA11D621F739FB00DF6
:10104000A11D621F839FA00D611D221F749F332766
:10105000A00D611D231F849F600D211D822F762FFF
:101060006A2F11249F5750408AF0E1F088234AF0FC
:10107000EE0FFF1FBB1F661F771F881F9150504048
:10108000A9F79E3F510570F05CCFA6CF5F3FECF310
:10109000983EDCF3869577956795B795F795E79534
:1010A0009F5FC1F7FE2B880F911D9695879597F945
:1010B0000895990F0008550FAA0BE0E8FEEF1616E9
:1010C0001706E807F907C0F012161306E407F5073C
:1010D00098F0621B730B840B950B39F40A2661F0B0
:1010E000232B242B252B21F408950A2609F4A14053
:1010F000A6958FEF811D811D089597FB072E16F48D
:10110000009407D077FD09D00E94910807FC05D014
:101110003EF4909581959F4F0895709561957F4F0E
:101120000895AA1BBB1B51E107C0AA1FBB1FA6172E
:10113000B70710F0A61BB70B881F991F5A95A9F780
:1011400080959095BC01CD010895EE0FFF1F05908D
:10115000F491E02D099411E0CEE6D1E004C0FE0147
:101160000E94A7082296C037D107C9F7F894FFCF8D
:00000001FF
