:100000000C94B8000C94E0000C94E0000C94E00018
:100010000C94E0000C94E0000C94E0000C94E000E0
:100020000C94E0000C94E0000C94E0000C94E000D0
:100030000C94E0000C94E0000C94E0000C94E000C0
:100040000C94E0000C94E0000C94E0000C94E000B0
:100050000C94E0000C94E0000C94E0000C94E000A0
:100060000C94E0000C944D010C9413020C94E000ED
:100070000C94E0000C94E0000C94E0000C94E00080
:100080000C94E0000C94E0000C94E0000C94E00070
:100090000C94E0000C94E0000C94E0000C94E00060
:1000A0000C94E0000C94E0000C94E0000C94E00050
:1000B0000C94E0000C94E0000C94E0000C94E00040
:1000C0000C94E0000C94E0000C94E0000C94E00030
:1000D0000C94E0000C94E0000C94E0000C94E00020
:1000E0000C94E0000C94E0000C94E0000C94E00010
:1000F0000C94E0000C94E0000C94E0000C94E00000
:100100000C94E0000C94E0000C94E0000C94E000EF
:100110000C94E0000C94E0000C94E0000C94E000DF
:100120000C94E0000C94E0000C94E0000C94E000CF
:100130000C94E0000C94CC060C94E0000C94E000CD
:100140000C94E0000C94E0000C94E0000C94E000AF
:100150000C94E0000C94E0000C94E0000C94E0009F
:100160000C94E0000C94E0000C94E000F10602070F
:1001700011241FBECFEFCDBFDFE2DEBF10E2A0E053
:10018000B0E2E4EFF7E102C005900D92A231B107B1
:10019000D9F720E2A2E1B0E201C01D92AB37B2076D
:1001A000E1F711E0CEE6D1E004C02297FE010E9403
:1001B000E90BCC36D107C9F70E942D050C94ED0B45
:1001C0000C940000AAECB1E022E02C93FC01849195
:1001D0001C9208950F931F93CF93DF93182F062F30
:1001E0008091000280FD1BC0C0E0D2E081E08883E6
:1001F00084E0898380E18A831B8286E08C8380E2AD
:1002000090E00E94E2008C8781E290E00E94E20090
:100210008D878FE79CE00197F1F700C00000E0E0D8
:10022000F2E000A3110F110F110F11A312A280A170
:10023000806880A386818823E9F3E0E0F2E086818C
:10024000868380A1806880A386818823E9F3E0E02B
:10025000F2E08681868380899189DF91CF911F9119
:100260000F910895E0E0F9E087E08083118282E158
:100270009AE786A397A381E086830895CF93DF93BF
:10028000EC0103C0CE010E946D09CE010E946509F8
:100290008111F8CFDF91CF9108951F920F920FB681
:1002A0000F9211242F933F934F935F936F937F93FC
:1002B0008F939F93AF93BF93CF93DF93EF93FF936E
:1002C0008CE690E20E9479098CE690E20E94650932
:1002D000882379F0C0912520D0E08CE690E20E943E
:1002E0006D09CD5EDF4D8883809125208F5F8093DF
:1002F0002520809125208A3009F082C08CE690E28A
:100300000E943E0190911B20809114207091152035
:10031000609116205091172040911820309119209B
:1003200020911A20872786278527842783278227DD
:1003300098134DC0E4E1F0E280818470809327201F
:100340008081C1E0869581708C2780933B2020912D
:1003500016208091152090E0820F911D809333200C
:1003600090933420809118206091172070E0680FDE
:10037000711D882777FD8095982F0E94A80A20E09C
:1003800030E048EC52E40E940D0AAB01BC0184E568
:1003900090E20E94430780911A206091192070E03A
:1003A000680F711D882777FD8095982F0E94A80AF5
:1003B00020E030E048EC52E40E940D0AAB01BC01A1
:1003C0008CE390E20E944307C093282019C0E0EA22
:1003D000F8E0818185FFFDCF8FEF8093A008E0EAF0
:1003E000F8E0818185FFFDCF1092A008E0EAF8E0F7
:1003F000818185FFFDCF8FEF8093A008109225208B
:10040000FF91EF91DF91CF91BF91AF919F918F912C
:100410007F916F915F914F913F912F910F900FBE00
:100420000F901F9018951F920F920FB60F921124E4
:100430002F933F934F935F936F937F938F939F93EC
:10044000AF93BF93EF93FF938CE690E20E948E09E7
:10045000FF91EF91BF91AF919F918F917F916F919C
:100460005F914F913F912F910F900FBE0F901F9072
:10047000189588ED84BF82E080935000E0E5F0E0BD
:10048000818181FFFDCF88ED84BF91E09093400092
:1004900084BFE0E5F0E0808184608083818182FF19
:1004A000FDCFE0E5F0E086818D7F8683E0E6F0E039
:1004B0008081816080830895E0E4F6E088E08183B4
:1004C00084E0828341E060EA78E08CE690E20E947A
:1004D0005C09E0916C20F0916D2083E0858383813D
:1004E0008F7C80618383A0EAB8E08FEC16968C93B2
:1004F000169717961C92848180618483848188601A
:100500008483E0EAF0E08281816082830895CF9362
:10051000DF930E9439020E945C020E94320180EE49
:10052000E0E4F6E08183E0E6F6E09FEF9183A0E06F
:10053000B6E011968C931197C0E2D6E087E08983EC
:1005400084E012968C93129798E012969C931297DF
:100550009A8320E112962C93129730E4368390E22E
:1005600016969C93169716963C93169730E8159618
:100570003C9326839683868321E02D8392E09D839E
:100580008E83268396837894DF91CF910895FC0122
:100590002081222359F0DC011196E0EAF8E0818104
:1005A00085FFFDCF20832D912111F9CF0895EF9282
:1005B000FF920F931F93CF93DF938C01C7E0D0E09E
:1005C000E12CF12C0115110539F461E081E00E9464
:1005D000EA00E80EF91E09C00130110531F461E0AE
:1005E00080E00E94EA00E80EF91E8FE39FE1019788
:1005F000F1F700C000002197209721F7C70167E0BD
:1006000070E00E94BF0BCB01DF91CF911F910F9142
:10061000FF90EF900895CF92DF92EF92FF9220919A
:1006200068203091692040916A2050916B20609140
:1006300064207091652080916620909167200E94CF
:10064000A8096B017C0120E030E0A9010E94340B75
:10065000181624F0F7FAF094F7F8F094A701960131
:10066000609158207091592080915A2090915B2080
:100670000E94340B181644F4E6E5F0E28081918183
:1006800001968083918304C01092562010925720C7
:100690002091502030915120409152205091532070
:1006A00060914C2070914D2080914E2090914F2070
:1006B0000E94A8096B017C0120E030E0A9010E94A2
:1006C000340B181624F0F7FAF094F7F8F094A70119
:1006D000960160914020709141208091422090913C
:1006E00043200E94340B181644F4EEE3F0E28081BC
:1006F000918101968083918304C010923E201092D4
:100700003F2020913E2030913F2080913C209091CD
:100710003D202817390724F08CE390E20E943F0720
:10072000209156203091572080913C2090913D207F
:100730002817390724F084E590E20E943F0780E003
:1007400090E00E94D702BC01882777FD8095982F02
:100750000E94A80A2FE135E848E652E40E940D0AFB
:1007600025E83BEE41ED5EE30E94A809609364201A
:1007700070936520809366209093672081E090E0DD
:100780000E94D702BC01882777FD8095982F0E9490
:10079000A80A2FE135E848E652E40E940D0A25E850
:1007A0003BEE41ED5EE30E94A80960934C207093FC
:1007B0004D2080934E2090934F20FF90EF90DF903C
:1007C000CF9008954F925F926F927F928F929F92F7
:1007D000AF92BF92CF92DF92EF92FF92009709F013
:1007E00071C04090642050906520609066207090A9
:1007F0006720209168203091692040916A205091B3
:100800006B20C301B2010E94A8096B017C0120E0AA
:1008100030E0A9010E94340B181624F0F7FAF09486
:10082000F7F8F09480905C2090905D20A0905E207E
:10083000B0905F2020E030E040E05FE3C501B4010C
:100840000E94380BA70196010E94340B181654F42D
:10085000809160209091612063E070E00E94BF0B66
:10086000CB01A6C0209168203091692040916A2078
:1008700050916B20C301B2010E94A8096B017C0159
:1008800020E030E0A9010E94340B181624F0F7FA9A
:10089000F094F7F8F094A7019601C501B4010E9405
:1008A000340B181654F480916020909161209923A4
:1008B0000CF40196959587957BC08091602090916E
:1008C000612076C0019709F071C040904C20509093
:1008D0004D2060904E2070904F20209150203091FC
:1008E00051204091522050915320C301B2010E94E7
:1008F000A8096B017C0120E030E0A9010E94340BC3
:10090000181624F0F7FAF094F7F8F0948090442049
:1009100090904520A0904620B090472020E030E005
:1009200040E05FE3C501B4010E94380BA7019601C6
:100930000E94340B181654F480914820909149205D
:1009400063E070E00E94BF0BCB0132C020915020C9
:10095000309151204091522050915320C301B20157
:100960000E94A8096B017C0120E030E0A9010E94EF
:10097000340B181624F0F7FAF094F7F8F094A70166
:100980009601C501B4010E94340B181654F48091ED
:1009900048209091492099230CF4019695958795CC
:1009A00007C0809148209091492002C080E090E0EB
:1009B000FF90EF90DF90CF90BF90AF909F908F907F
:1009C0007F906F905F904F9008950097F1F4809121
:1009D000622090916320009709F43EC02091682026
:1009E0003091692040916A2050916B206091642081
:1009F0007091652080916620909167200E94340B51
:100A0000181614F58FEF9FEF0895019701F5809167
:100A10004A2090914B200097F9F02091502030917E
:100A20005120409152205091532060914C20709160
:100A30004D2080914E2090914F200E94340B18162B
:100A40004CF48FEF9FEF089581E090E0089580E0EF
:100A500090E0089581E090E00895CF93DF9300D077
:100A600000D0CDB7DEB70E9487022FEF87EA91E66C
:100A7000215080409040E1F700C0000040E656E081
:100A800060EA79E0CE0101960E94A10880E090E042
:100A9000A0E4B0E48093502090935120A093522082
:100AA000B093532080E090E0A0E6B0E4809368200B
:100AB00090936920A0936A20B0936B20E0E0F6E069
:100AC000808584FFFDCF84E590E20E9439078CE3A6
:100AD00090E20E9439070F2EF2E6CF2EF0E2DF2ED1
:100AE000F02D0F2EFAE4EF2EF0E2FF2EF02D00E0B5
:100AF00016E0F60180819181892B31F4F701808124
:100B00009181892B09F4EDC0F801808584FD21C114
:100B1000E8C08091122081112DC080E090E20E94F7
:100B2000C702FFEF23ED80E3F15020408040E1F762
:100B300000C00000809113208237C9F481E08093C7
:100B40001220F801818185FFFCCF82E780838091AC
:100B5000212090912220A0912320B09124208093E5
:100B60001D2090931E20A0931F20B0932020109250
:100B70002520CFCF813069F680912820882349F243
:100B80008091272090912620891739F00E94130721
:100B9000809127208093262073C080E8F40185830C
:100BA00084E590E20E9439078CE390E20E943907C5
:100BB000E3E3F0E26081718189E290E20E94110832
:100BC0000E940B0330C00E940B0380E090E00E9463
:100BD000E203482E81E090E00E94E504382E80E098
:100BE00090E00E94E203582E80E090E00E94E5042D
:100BF000349C402D11244158859D802D11246FE790
:100C0000680FCE0101960E945908F701808584FD86
:100C10000AC04FE76FE7CE0101960E945908F7011D
:100C2000808584FFF6CFF60180819181892B59F66A
:100C3000F50180819181892B31F64FE76FE7CE0175
:100C400001960E945908F301808181110BC085E350
:100C500090E20E94560960E070E085E390E20E9415
:100C6000E0080EC0F3018081813051F485E390E209
:100C70000E94560961E070E085E390E20E94E0087E
:100C80001092282080E8F4018683F801818185FF95
:100C9000FCCF8FEF8083F801818185FFFCCFF701C6
:100CA000808583FD02C083E001C082E0F80180837B
:100CB000F801818185FFFCCF8FEF80831092252082
:100CC0008091212090912220A0912320B091242076
:100CD00080931D2090931E20A0931F20B09320206E
:100CE00018CF89E290E20E945E0781E0E0E6F6E03C
:100CF000868360E070E089E290E20E94110885E35B
:100D000090E20E94560961E070E085E390E20E9463
:100D1000E0080F2EF0E48F2EF6E09F2EF02D00EA73
:100D200018E00F2EE12CF6E0FF2EF02D0F2EF2E64C
:100D3000CF2EF0E2DF2EF02D0F2EFAE4AF2EF0E2F0
:100D4000BF2EF02D0F2EFBE36F2EF0E27F2EF02D45
:100D5000E0CE0E940B0381E090E00E94E203A82E07
:100D600081E090E00E94E504982E80E090E00E94EF
:100D7000E203B82E80E090E00E94E5049A9C402DAA
:100D8000112441588B9D802D11246FE7680FCE01EF
:100D900001960E945908ADCE1F920F920FB60F9286
:100DA00011248F939F93AF93BF93809121209091B3
:100DB0002220A0912320B09124200196A11DB11DD5
:100DC0008093212090932220A0932320B09324206D
:100DD000BF91AF919F918F910F900FBE0F901F9079
:100DE000189584E590E20E941A078CE390E20E9435
:100DF0001A0785E390E20E94D30889E290E20E94FC
:100E00004907089589E290E20E945D0785E390E238
:100E10000E94DF088CE390E20E94380784E590E2AC
:100E20000E9438070895813021F480E8E0E4F6E07C
:100E300085830895FC011282138285E090E080830F
:100E400091834DEC5CEC6CE47EE3448355836683D4
:100E5000778340E050E060E47FE34087518762871A
:100E6000738784E690E084879587168617860895B1
:100E7000089521E030E0FC01268737870895FC01C2
:100E8000168617860895FC01448B558B668B778BED
:100E90000895FC0145E85BE261E873E4448355830F
:100EA0006683778340E050E060E87FEB40835183C6
:100EB000628373831086118608950895CF93DF931C
:100EC000EC0181E0E0E6F6E0868360E070E020E09F
:100ED000E0E0F6E0A0E6B6E031E052E0808584FF95
:100EE000FDCF808582FF10C0211110C015963C9364
:100EF00015972FEF43EC89E0215040408040E1F707
:100F000000C00000232F02C0222341F06F5F7F4FFB
:100F1000673971051CF0808582FD13C016965C93BD
:100F200016978FE795E20197F1F700C0000015963C
:100F30005C9315978FE795E20197F1F700C00000E9
:100F4000CDCF82E0E0E6F6E086838FE795E2019779
:100F5000F1F700C0000082E085838FE795E20197FA
:100F6000F1F700C00000882777FD8095982F0E9438
:100F7000A80A2C813D814E815F810E940D0A688301
:100F800079838A839B83DF91CF910895CF93DF93F9
:100F9000EC01CB01181619062CF421E0E0E6F6E08E
:100FA000268304C021E0E0E6F6E02583BC01992316
:100FB00024F466277727681B790B882777FD8095AF
:100FC000982F0E94A80A288139814A815B810E945A
:100FD000380B0E94750A1616170604F580E090E09B
:100FE000E0E0F6E0A0E6B6E032E0208524FFFDCFA9
:100FF00016963C931697CFEFD8E12197F1F700C0F2
:10100000000015963C931597CFE5D2E22197F1F7B2
:1010100000C0000001968617970739F7DF91CF913E
:101020000895CF92DF92EF92FF92CF93DF93EC017E
:10103000882777FD8095982F0E94A80A2BE734E136
:1010400048E052E40E94A9090E94750A6B017C01E4
:1010500088859985B601681B790BCE010E94C60769
:10106000C886D986DF91CF91FF90EF90DF90CF9027
:101070000895DC01ED91FC911197818185FFFDCFF1
:1010800080E88083ED91FC911197818185FFFDCFF0
:101090006083ED91FC911197818185FFFDCF4083A5
:1010A000ED91FC91818185FFFDCF640F6F776083A7
:1010B00008950F931F93CF93DF93EC01842F6F3725
:1010C00061F06F3720F44FE7461B61E00BC06623E9
:1010D0003CF441E8460F60E005C040E060E002C03B
:1010E00040E060E08F3761F08F3720F40FE7081B96
:1010F00015E00BC088233CF401E8080F14E005C09C
:1011000000E014E002C000E014E0CE010E943908C3
:10111000402F612FCE010E943908DF91CF911F919E
:101120000F910895CF93DF93EC0140E060E00E94BF
:10113000390840E064E0CE010E943908DF91CF9188
:101140000895CF93DF93EC01688379834A835B83AF
:1011500088E0FA018183E881F98183E08583E88171
:10116000F9818FEC8683E881F9811782E881F98122
:10117000848188608483FFEF23EC89E0F150204074
:101180008040E1F700C00000E881F9818AEA8083AD
:1011900044E16EE0CE010E943908CE010E9492081F
:1011A000DF91CF910895FC01108211828FEF9FEFA4
:1011B0008283938381E090E08483958308950895EA
:1011C000CF93DF93AC01EC0188819981892B09F4DD
:1011D0006AC06230710508F066C08A819B818617FB
:1011E000970709F460C06A837B836115710529F450
:1011F00080E1E0E6F6E0858307C06130710521F407
:1012000080E1E0E6F6E08683FA0184819581892B0E
:1012100011F528E833E1E0E0F6E0A0E6B6E090E280
:10122000808584FFFDCF15969C931597CFE8D1E07C
:101230002197F1F700C0000016969C931697CFE90E
:10124000DFE02197F1F700C000002150310921159E
:10125000310531F703C0FA011482158280E296E06D
:10126000E0E0F6E0A0E6B6E030E213C0208524FF1F
:10127000FDCF15963C93159725ED2A95F1F70000C3
:1012800016963C931697CFE3D1E02197F1F700C073
:101290000000EC01288523FD03C0208523FDE6CF57
:1012A000FA0110821182DF91CF91089521E030E0A0
:1012B000FC01208331830895FC01608371834283A4
:1012C00014861386168615860895FC012385948559
:1012D00081E0291301C080E00895FC018485DF01CD
:1012E000A80FB11D13968C9194859F5F937094877E
:1012F0000895FC0183858F5F83709485A081B181FF
:101300002C91891749F09385DF01A90FB11D139620
:101310002C93838781E0089580E00895FC01868501
:101320009585981307C00190F081E02D83818C7F13
:10133000838308958685DF01A80FB11D17968C91D0
:10134000A081B1818C9386858F5F83708687089595
:101350005058BB27AA270ED04DC13ED130F043D103
:1013600020F031F49F3F11F41EF433C10EF4E095E8
:10137000E7FB29C1E92F4FD180F3BA176207730742
:101380008407950718F071F49EF567C10EF4E09597
:101390000B2EBA2FA02D0B01B90190010C01CA012F
:1013A000A0011124FF27591B99F0593F50F4503EDA
:1013B00068F11A16F040A22F232F342F4427585FCC
:1013C000F3CF469537952795A795F0405395C9F7E4
:1013D0007EF41F16BA0B620B730B840BBAF091509C
:1013E000A1F0FF0FBB1F661F771F881FC2F70EC03B
:1013F000BA0F621F731F841F48F48795779567950E
:10140000B795F7959E3F08F0B3CF9395880F08F0F6
:101410009927EE0F9795879508950CD0EBC0E3D0F0
:1014200040F0DAD030F021F45F3F19F0CCC0511118
:1014300015C1CFC0F0D098F39923C9F35523B1F368
:10144000951B550BBB27AA2762177307840738F033
:101450009F5F5F4F220F331F441FAA1FA9F333D092
:101460000E2E3AF0E0E830D091505040E695001C46
:10147000CAF729D0FE2F27D0660F771F881FBB1F02
:10148000261737074807AB07B0E809F0BB0B802DDC
:10149000BF01FF2793585F4F2AF09E3F510568F028
:1014A00092C0DCC05F3FECF3983EDCF38695779505
:1014B0006795B795F7959F5FC9F7880F911D96952A
:1014C000879597F90895E1E0660F771F881FBB1F86
:1014D000621773078407BA0720F0621B730B840B33
:1014E000BA0BEE1F88F7E095089504D06894B11107
:1014F000B5C0089598D088F09F5790F0B92F9927DC
:10150000B751A0F0D1F0660F771F881F991F1AF00E
:10151000BA95C9F712C0B13081F09FD0B1E00895FB
:101520009CC0672F782F8827B85F39F0B93FCCF37C
:10153000869577956795B395D9F73EF49095809504
:10154000709561957F4F8F4F9F4F0895E89409C024
:1015500097FB3EF490958095709561957F4F8F4FE6
:101560009F4F9923A9F0F92F96E9BB279395F695FC
:10157000879577956795B795F111F8CFFAF4BB0F7A
:1015800011F460FF1BC06F5F7F4F8F4F9F4F16C0DE
:10159000882311F096E911C0772321F09EE8872F68
:1015A000762F05C0662371F096E8862F70E060E024
:1015B0002AF09A95660F771F881FDAF7880F96959D
:1015C000879597F9089597F99F6780E870E060E044
:1015D00008959FEF80EC089500240A9416161706CC
:1015E00018060906089500240A9412161306140614
:1015F00005060895092E0394000C11F4882352F077
:10160000BB0F40F4BF2B11F460FF04C06F5F7F4F2E
:101610008F4F9F4F089557FD9058440F551F59F015
:101620005F3F71F04795880F97FB991F61F09F3FCF
:1016300079F087950895121613061406551FF2CFF8
:101640004695F1DF08C0161617061806991FF1CF48
:1016500086957105610508940895E894BB2766276F
:101660007727CB0197F9089566D008F48FEF089596
:101670000BD0C0CFB1DF28F0B6DF18F0952309F00A
:10168000A2CFA7CF1124EACFC6DFA0F3959FD1F355
:10169000950F50E0551F629FF001729FBB27F00D20
:1016A000B11D639FAA27F00DB11DAA1F649F662775
:1016B000B00DA11D661F829F2227B00DA11D621FC4
:1016C000739FB00DA11D621F839FA00D611D221F7E
:1016D000749F3327A00D611D231F849F600D211D62
:1016E000822F762F6A2F11249F5750408AF0E1F005
:1016F00088234AF0EE0FFF1FBB1F661F771F881F4E
:1017000091505040A9F79E3F510570F05CCFA6CF95
:101710005F3FECF3983EDCF3869577956795B79538
:10172000F795E7959F5FC1F7FE2B880F911D969562
:10173000879597F90895990F0008550FAA0BE0E8CF
:10174000FEEF16161706E807F907C0F01216130683
:10175000E407F50798F0621B730B840B950B39F4C3
:101760000A2661F0232B242B252B21F408950A2629
:1017700009F4A140A6958FEF811D811D089597FB67
:10178000072E16F4009407D077FD09D00E94D30BE2
:1017900007FC05D03EF4909581959F4F0895709574
:1017A00061957F4F0895AA1BBB1B51E107C0AA1F7B
:1017B000BB1FA617B70710F0A61BB70B881F991FF2
:1017C0005A95A9F780959095BC01CD010895EE0F2B
:1017D000FF1F0590F491E02D099411E0CEE6D1E0D1
:1017E00004C0FE010E94E90B2296C037D107C9F759
:0417F000F894FFCF9B
:1017F40049443A2041726D436F6E74726F6C0D0AE6
:021804000000E2
:00000001FF
