:100000000C94B6000C94D3000C94D3000C94D30041
:100010000C94D3000C94D3000C94D3000C94D30014
:100020000C94D3000C94D3000C94D3000C94D30004
:100030000C94D3000C94D3000C94D3000C94D300F4
:100040000C94D3000C94D3000C94D3000C94D300E4
:100050000C94D3000C94D3000C94D3000C94D300D4
:100060000C94D3000C94D3000C94D3000C94D300C4
:100070000C94D3000C94D3000C94D3000C94D300B4
:100080000C94D3000C94D3000C94D3000C94D300A4
:100090000C94D3000C94D3000C94D3000C94D30094
:1000A0000C94D3000C94D3000C94D3000C94D30084
:1000B0000C94D3000C94D3000C94D3000C94D30074
:1000C0000C94D3000C94D3000C94D3000C94D30064
:1000D0000C94D3000C94D3000C94D3000C94D30054
:1000E0000C94D3000C94D3000C94D3000C94D30044
:1000F0000C94D3000C94D3000C94D3000C94D30034
:100100000C94D3000C94D3000C94D3000C94D30023
:100110000C94D3000C94D3000C94D3000C94D30013
:100120000C94D3000C94D3000C94D3000C94D30003
:100130000C94D3000C94D3000C94D3000C94D300F3
:100140000C94D3000C94D3000C94D3000C94D300E3
:100150000C94D3000C94D3000C94D3000C94D300D3
:100160000C94D3000C94D3000C94D30011241FBE24
:10017000CFEFCDBFDFE2DEBF10E2A0E0B0E2EEE302
:10018000F3E002C005900D92A431B107D9F720E247
:10019000A4E1B0E201C01D92A531B207E1F70E94CF
:1001A000D5000C949D010C940000CF93DF93CDB744
:1001B000DEB76397CDBFDEBF88ED84BF82E080935A
:1001C0005000E0E5F0E0818181FFFDCF88ED84BF44
:1001D00021E02093400083E1E0E0F0E2DE011196AF
:1001E00001900D928A95E1F7A0E4B6E088E01196BF
:1001F0008C93119734E012963C931297E0EAF8E062
:1002000083E085838FEC8683178284818061848379
:100210008481886084832093142080EE11968C93CF
:10022000E0E6F6E09FEF918360E076E0DB01119677
:100230008C9380E296E047E0DC0111964C93DB0161
:1002400012963C93129750E4558340E216964C93D5
:10025000169716965C93169750E816965C9350E1A5
:10026000568346833683DC0116962C93169742E01C
:1002700016964C93169716963C932683468380E0F9
:1002800090E0E0EAF8E040E656E06894FF24F1F8F8
:10029000BB24B39420E436E06894CC24C6F8689478
:1002A000DD24D5F86894EE24E7F80981002349F0AD
:1002B000DE011296118115FFFDCF00830D91011112
:1002C000F9CFDA011596FC92AFEDB1E01197F1F795
:1002D00000C00000DA011696FC92AFEDB1E0119774
:1002E000F1F700C0000001968B3F910554F0DA0150
:1002F0001596BC92D9011696CC9216971596DC925B
:1003000009C0DA011696BC92D9011596CC921597C0
:100310001696DC92853FB1E09B0714F080E090E0F8
:10032000DB0118961C9110FD04C0D9011596EC92C2
:0E033000BCCFD9011696EC92B8CFF894FFCF4F
:10033E0054686973206973206120737472696E67E3
:04034E000D0A000094
:00000001FF
