S012000041726D436F6E74726F6C2E7372656311
S11300000C94B8000C94E0000C94E0000C94E00014
S11300100C94E0000C94E0000C94E0000C94E000DC
S11300200C94E0000C94E0000C94E0000C94E000CC
S11300300C94E0000C94E0000C94E0000C94E000BC
S11300400C94E0000C94E0000C94E0000C94E000AC
S11300500C94E0000C94E0000C94E0000C94E0009C
S11300600C94E0000C944D010C940E020C94E000EE
S11300700C94E0000C94E0000C94E0000C94E0007C
S11300800C94E0000C94E0000C94E0000C94E0006C
S11300900C94E0000C94E0000C94E0000C94E0005C
S11300A00C94E0000C94E0000C94E0000C94E0004C
S11300B00C94E0000C94E0000C94E0000C94E0003C
S11300C00C94E0000C94E0000C94E0000C94E0002C
S11300D00C94E0000C94E0000C94E0000C94E0001C
S11300E00C94E0000C94E0000C94E0000C94E0000C
S11300F00C94E0000C94E0000C94E0000C94E000FC
S11301000C94E0000C94E0000C94E0000C94E000EB
S11301100C94E0000C94E0000C94E0000C94E000DB
S11301200C94E0000C94E0000C94E0000C94E000CB
S11301300C94E0000C94BF060C94E0000C94E000D6
S11301400C94E0000C94E0000C94E0000C94E000AB
S11301500C94E0000C94E0000C94E0000C94E0009B
S11301600C94E0000C94E0000C94E000E406F50626
S113017011241FBECFEFCDBFDFE2DEBF10E2A0E04F
S1130180B0E2EEEBF7E102C005900D92A231B107A7
S1130190D9F720E2A2E1B0E201C01D92A937B2076B
S11301A0E1F711E0CEE6D1E004C02297FE010E94FF
S11301B0CE0BCC36D107C9F70E9428050C94D20B7C
S11301C00C940000AAECB1E022E02C93FC01849191
S11301D01C9208950F931F93CF93DF93182F062F2C
S11301E08091000280FD1BC0C0E0D2E081E08883E2
S11301F084E0898380E18A831B8286E08C8380E2A9
S113020090E00E94E2008C8781E290E00E94E2008C
S11302108D878FE79CE00197F1F700C00000E0E0D4
S1130220F2E000A3110F110F110F11A312A280A16C
S1130230806880A386818823E9F3E0E0F2E0868188
S1130240868380A1806880A386818823E9F3E0E027
S1130250F2E08681868380899189DF91CF911F9115
S11302600F910895E0E0F9E087E08083118282E154
S11302709AE786A397A381E086830895CF93DF93BB
S1130280EC0103C0CE010E945209CE010E944A092A
S11302908111F8CFDF91CF9108951F920F920FB67D
S11302A00F9211242F933F934F935F936F937F93F8
S11302B08F939F93AF93BF93CF93DF93EF93FF936A
S11302C08AE690E20E945E098AE690E20E944A0968
S11302D0882379F0C0912520D0E08AE690E20E943C
S11302E05209CD5EDF4D8883809125208F5F8093F6
S11302F02520809125208A3009F07DC08AE690E28D
S11303000E943E0190911B20809114207091152031
S11303106091162050911720409118203091192097
S113032020911A20872786278527842783278227D9
S1130330981348C080911420C1E0869581708C2761
S113034080933920209116208091152090E0820F0F
S1130350911D8093312090933220809118206091D8
S1130360172070E0680F711D882777FD8095982FFE
S11303700E948D0A20E030E048EC52E40E94F20929
S1130380AB01BC0182E590E20E942F0780911A2004
S11303906091192070E0680F711D882777FD8095A2
S11303A0982F0E948D0A20E030E048EC52E40E942D
S11303B0F209AB01BC018AE390E20E942F07C093CB
S11303C0262019C0E0EAF8E0818185FFFDCF8FEF98
S11303D08093A008E0EAF8E0818185FFFDCF1092C8
S11303E0A008E0EAF8E0818185FFFDCF8FEF8093DC
S11303F0A00810922520FF91EF91DF91CF91BF913A
S1130400AF919F918F917F916F915F914F913F91A8
S11304102F910F900FBE0F901F9018951F920F925F
S11304200FB60F9211242F933F934F935F936F93C3
S11304307F938F939F93AF93BF93EF93FF938AE63A
S113044090E20E947309FF91EF91BF91AF919F9148
S11304508F917F916F915F914F913F912F910F9069
S11304600FBE0F901F90189588ED84BF82E0809393
S11304705000E0E5F0E0818181FFFDCF88ED84BF8D
S113048091E09093400084BFE0E5F0E080818460D7
S11304908083818182FFFDCFE0E5F0E086818D7F5E
S11304A08683E0E6F0E08081816080830895E0E463
S11304B0F6E088E0818384E0828341E060EA78E0CA
S11304C08AE690E20E944109E0916A20F0916B2053
S11304D083E0858383818F7C80618383A0EAB8E095
S11304E08FEC16968C93169717961C9284818061D4
S11304F08483848188608483E0EAF0E0828181607F
S113050082830895CF93DF930E9434020E9457029E
S11305100E94320180EEE0E4F6E08183E0E6F6E05A
S11305209FEF9183A0E0B6E011968C931197C0E2FF
S1130530D6E087E0898384E012968C93129798E042
S113054012969C9312979A8320E112962C931297F9
S113055030E4368390E216969C93169716963C9355
S1130560169730E815963C9326839683868321E07C
S11305702D8392E09D838E83268396837894DF91E6
S1130580CF910895FC012081222359F0DC011196BA
S1130590E0EAF8E0818185FFFDCF20832D912111D0
S11305A0F9CF0895EF92FF920F931F93CF93DF93A8
S11305B08C01C7E0D0E0E12CF12C0115110539F4D0
S11305C061E081E00E94EA00E80EF91E09C00130F2
S11305D0110531F461E080E00E94EA00E80EF91EA2
S11305E08FE39FE10197F1F700C000002197209766
S11305F021F7C70167E070E00E94A40BCB01DF91F3
S1130600CF911F910F91FF90EF900895CF92DF92B9
S1130610EF92FF92209166203091672040916820EC
S113062050916920609162207091632080916420D0
S1130630909165200E948D096B017C0120E030E0DF
S1130640A9010E94190B181624F0F7FAF094F7F890
S1130650F094A701960160915620709157208091E3
S11306605820909159200E94190B181644F4E4E57F
S1130670F0E28081918101968083918304C010927D
S113068054201092552020914E2030914F204091BB
S113069050205091512060914A2070914B208091BC
S11306A04C2090914D200E948D096B017C0120E02B
S11306B030E0A9010E94190B181624F0F7FAF094FF
S11306C0F7F8F094A701960160913E2070913F20C5
S11306D080914020909141200E94190B181644F4F7
S11306E0ECE3F0E28081918101968083918304C0E0
S11306F010923C2010923D2020913C2030913D20CE
S113070080913A2090913B202817390724F08AE3FE
S113071090E20E942B072091542030915520809123
S11307203A2090913B202817390724F082E590E283
S11307300E942B0780E090E00E94D202BC0188272F
S113074077FD8095982F0E948D0A2FE135E848E6C1
S113075052E40E94F20925E83BEE41ED5EE30E947B
S11307608D0960936220709363208093642090933A
S1130770652081E090E00E94D202BC01882777FDC9
S11307808095982F0E948D0A2FE135E848E652E4BF
S11307900E94F20925E83BEE41ED5EE30E948D09DB
S11307A060934A2070934B2080934C2090934D206B
S11307B0FF90EF90DF90CF9008954F925F926F92E9
S11307C07F928F929F92AF92BF92CF92DF92EF92DD
S11307D0FF92009709F071C040906220509063200E
S11307E0609064207090652020916620309167208D
S11307F04091682050916920C301B2010E948D0983
S11308006B017C0120E030E0A9010E94190B18164D
S113081024F0F7FAF094F7F8F09480905A2090902E
S11308205B20A0905C20B0905D2020E030E040E0B0
S11308305FE3C501B4010E941D0BA70196010E944C
S1130840190B181654F480915E2090915F2063E098
S113085070E00E94A40BCB01A6C0209166203091C9
S113086067204091682050916920C301B2010E9421
S11308708D096B017C0120E030E0A9010E94190B75
S1130880181624F0F7FAF094F7F8F094A7019601FB
S1130890C501B4010E94190B181654F480915E200E
S11308A090915F2099230CF40196959587957BC0D0
S11308B080915E2090915F2076C0019709F071C00D
S11308C040904A2050904B2060904C2070904D20D6
S11308D020914E2030914F20409150205091512032
S11308E0C301B2010E948D096B017C0120E030E05C
S11308F0A9010E94190B181624F0F7FAF094F7F8DE
S1130900F0948090422090904320A0904420B09096
S1130910452020E030E040E05FE3C501B4010E94DF
S11309201D0BA70196010E94190B181654F480910F
S113093046209091472063E070E00E94A40BCB0115
S113094032C020914E2030914F2040915020509140
S11309505120C301B2010E948D096B017C0120E08A
S113096030E0A9010E94190B181624F0F7FAF0944C
S1130970F7F8F094A7019601C501B4010E94190B80
S1130980181654F4809146209091472099230CF432
S113099001969595879507C08091462090914720B0
S11309A002C080E090E0FF90EF90DF90CF90BF9086
S11309B0AF909F908F907F906F905F904F9008952D
S11309C00097F1F48091602090916120009709F4E0
S11309D03EC020916620309167204091682050915C
S11309E069206091622070916320809164209091CD
S11309F065200E94190B181614F58FEF9FEF0895C8
S1130A00019701F580914820909149200097F9F0D1
S1130A1020914E2030914F204091502050915120F0
S1130A2060914A2070914B2080914C2090914D20F0
S1130A300E94190B18164CF48FEF9FEF089581E074
S1130A4090E0089580E090E0089581E090E00895BA
S1130A50CF93DF9300D000D0CDB7DEB70E948202DF
S1130A602FEF87EA91E6215080409040E1F700C0E3
S1130A70000040E656E060EA79E0CE0101960E946B
S1130A80860880E090E0A0E4B0E480934E20909348
S1130A904F20A0935020B093512080E090E0A0E636
S1130AA0B0E48093662090936720A0936820B0936D
S1130AB06920E0E0F6E0808584FFFDCF82E590E2E6
S1130AC00E9425078AE390E20E9425070F2EF0E694
S1130AD0CF2EF0E2DF2EF02D0F2EF8E4EF2EF0E211
S1130AE0FF2EF02D00E016E0F60180819181892B24
S1130AF031F4F70180819181892B09F4E4C0F80174
S1130B00808584FD19C1DFC08091122081112DC020
S1130B1080E090E20E94C202FFEF23ED80E3F150F7
S1130B2020408040E1F700C000008091132082370C
S1130B30C9F481E080931220F701818185FFFCCF05
S1130B4082E780838091212090912220A09123200C
S1130B50B091242080931D2090931E20A0931F20E9
S1130B60B093202010922520CFCF813069F6809158
S1130B702620882309F489C080E8F401858382E56E
S1130B8090E20E9425078AE390E20E942507E1E3B0
S1130B90F0E26081718187E290E20E94F6070E9490
S1130BA0060326C00E94060380E090E00E94DD0355
S1130BB0482E81E090E00E94E004382E80E090E02E
S1130BC00E94DD03582E80E090E00E94E004349CF3
S1130BD0402D11244158859D802D11246FE7680F05
S1130BE0CE0101960E943E08F801808584FFFCCF67
S1130BF0F60180819181892BA9F6F501808191818B
S1130C00892B81F64FE76FE7CE0101960E943E08DB
S1130C10F301808181110BC083E390E20E943B09C0
S1130C2060E070E083E390E20E94C5080EC0F30127
S1130C308081813051F483E390E20E943B0961E0BA
S1130C4070E083E390E20E94C5081092262080E8B9
S1130C50F4018683F701818185FFFCCF8FEF8083C8
S1130C60F701818185FFFCCFF801808583FD02C0F7
S1130C7083E001C082E0F7018083F701818185FF71
S1130C80FCCF8FEF8083109225204091212050913A
S1130C902220609123207091242080911D20909126
S1130CA01E20A0911F20B0912020841B950BA60B21
S1130CB0B70B0697A105B10508F426CF10921220B0
S1130CC01092252021CF87E290E20E944A0781E01A
S1130CD0E0E6F6E0868360E070E087E290E20E945E
S1130CE0F60783E390E20E943B0961E070E083E34E
S1130CF090E20E94C5080F2EF0E48F2EF6E09F2E9E
S1130D00F02D0F2EF0E6CF2EF0E2DF2EF02D0F2E79
S1130D10F8E4AF2EF0E2BF2EF02D00E016E00F2E27
S1130D20F9E36F2EF0E27F2EF02D0F2EF0EAEF2E76
S1130D30F8E0FF2EF02DE8CE0E94060381E090E05B
S1130D400E94DD03A82E81E090E00E94E004982E2A
S1130D5080E090E00E94DD03B82E80E090E00E94E5
S1130D60E0049A9C402D112441588B9D802D112420
S1130D706FE7680FCE0101960E943E08B5CE1F9220
S1130D800F920FB60F9211248F939F93AF93BF933B
S1130D908091212090912220A0912320B0912420A1
S1130DA00196A11DB11D8093212090932220A09330
S1130DB02320B0932420BF91AF919F918F910F90E6
S1130DC00FBE0F901F90189582E590E20E940607CF
S1130DD08AE390E20E94060783E390E20E94B80847
S1130DE087E290E20E943507089587E290E20E942C
S1130DF0490783E390E20E94C4088AE390E20E94D8
S1130E00240782E590E20E9424070895FC011282DF
S1130E10138285E090E0808391834DEC5CEC6CE47C
S1130E207EE3448355836683778340E050E060E447
S1130E307FE3408751876287738784E690E08487E5
S1130E409587168617860895089521E030E0FC0101
S1130E50268737870895FC01168617860895FC01B6
S1130E60448B558B668B778B0895FC0145E85BE2D8
S1130E7061E873E4448355836683778340E050E0FC
S1130E8060E87FEB4083518362837383108611860D
S1130E9008950895CF93DF93EC0181E0E0E6F6E056
S1130EA0868360E070E020E0A0E0B6E031E052E04C
S1130EB018968C91189782FF0EC021110EC03583AD
S1130EC02FEF43EC89E0215040408040E1F700C01F
S1130ED00000232F02C0222351F06F5F7F4F673938
S1130EE071052CF018968C91189782FD0FC05683CB
S1130EF08FEF98E10197F1F700C0000055838FEF61
S1130F0098E10197F1F700C00000D2CF82E0E0E65B
S1130F10F6E086838FEF98E10197F1F700C00000B7
S1130F2082E085838FEF98E10197F1F700C000001C
S1130F30882777FD8095982F0E948D0A2C813D810A
S1130F404E815F810E94F209688379838A839B833F
S1130F50DF91CF910895CF93DF93EC01CB01181665
S1130F6019062CF421E0E0E6F6E0268304C021E033
S1130F70E0E6F6E02583BC01992324F4662777276D
S1130F80681B790B882777FD8095982F0E948D0A1E
S1130F90288139814A815B810E941D0B0E945A0A73
S1130FA01616170604F580E090E0E0E0F6E0A0E60F
S1130FB0B6E032E0208524FFFDCF16963C931697C9
S1130FC0CFEBD2E12197F1F700C0000015963C93D6
S1130FD01597CFE1DCE12197F1F700C000000196FD
S1130FE08617970739F7DF91CF910895CF92DF9253
S1130FF0EF92FF92CF93DF93EC01882777FD8095E2
S1131000982F0E948D0A2BE734E148E052E40E94B5
S11310108E090E945A0A6B017C0188859985B60164
S1131020681B790BCE010E94AB07C886D986DF9175
S1131030CF91FF90EF90DF90CF900895DC01ED9178
S1131040FC911197818185FFFDCF80E88083ED912C
S1131050FC911197818185FFFDCF6083ED91FC9117
S11310601197818185FFFDCF4083ED91FC918181B2
S113107085FFFDCF640F6F77608308950F931F93EF
S1131080CF93DF93EC01842F6F3761F06F3720F437
S11310904FE7461B61E00BC066233CF441E8460F72
S11310A060E005C040E060E002C040E060E08F37EF
S11310B061F08F3720F40FE7081B15E00BC088237D
S11310C03CF401E8080F14E005C000E014E002C09D
S11310D000E014E0CE010E941E08402F612FCE01D3
S11310E00E941E08DF91CF911F910F910895CF9315
S11310F0DF93EC0140E060E00E941E0840E064E001
S1131100CE010E941E08DF91CF910895CF93DF9303
S1131110EC01688379834A835B8388E0FA018183E5
S1131120E881F98183E08583E881F9818FEC868306
S1131130E881F9811782E881F98184818860848358
S1131140FFEF23EC89E0F15020408040E1F700C03C
S11311500000E881F9818AEA808344E16EE0CE01EF
S11311600E941E08CE010E947708DF91CF91089556
S1131170FC01108211828FEF9FEF8283938381E0C1
S113118090E08483958308950895CF93DF93AC0111
S1131190EC0188819981892B09F46AC06230710558
S11311A008F066C08A819B818617970709F460C09E
S11311B06A837B836115710529F480E1E0E6F6E03A
S11311C0858307C06130710521F480E1E0E6F6E033
S11311D08683FA0184819581892B11F528E833E10E
S11311E0E0E0F6E0A0E6B6E090E2808584FFFDCF83
S11311F015969C931597CFE8D1E02197F1F700C09D
S1131200000016969C931697CFE9DFE02197F1F73B
S113121000C00000215031092115310531F703C008
S1131220FA011482158280E296E0E0E0F6E0A0E69E
S1131230B6E030E213C0208524FFFDCF15963C9321
S1131240159725ED2A95F1F7000016963C9316970D
S1131250CFE3D1E02197F1F700C00000EC0128852D
S113126023FD03C0208523FDE6CFFA0110821182FD
S1131270DF91CF91089521E030E0FC012083318398
S11312800895FC0160837183428314861386168655
S113129015860895FC012385948581E0291301C0F6
S11312A080E00895FC018485DF01A80FB11D139629
S11312B08C9194859F5F937094870895FC01838536
S11312C08F5F83709485A081B1812C91891749F037
S11312D09385DF01A90FB11D13962C93838781E0B9
S11312E0089580E00895FC0186859585981307C0CC
S11312F00190F081E02D83818C7F8383089586851E
S1131300DF01A80FB11D17968C91A081B1818C9338
S113131086858F5F8370868708955058BB27AA27D8
S11313200ED04DC13ED130F043D120F031F49F3F77
S113133011F41EF433C10EF4E095E7FB29C1E92F43
S11313404FD180F3BA17620773078407950718F023
S113135071F49EF567C10EF4E0950B2EBA2FA02D03
S11313600B01B90190010C01CA01A0011124FF274E
S1131370591B99F0593F50F4503E68F11A16F04049
S1131380A22F232F342F4427585FF3CF4695379548
S11313902795A795F0405395C9F77EF41F16BA0B0D
S11313A0620B730B840BBAF09150A1F0FF0FBB1FBB
S11313B0661F771F881FC2F70EC0BA0F621F731F04
S11313C0841F48F4879577956795B795F7959E3F61
S11313D008F0B3CF9395880F08F09927EE0F9795EF
S11313E0879508950CD0EBC0E3D040F0DAD030F00C
S11313F021F45F3F19F0CCC0511115C1CFC0F0D01A
S113140098F39923C9F35523B1F3951B550BBB27C7
S1131410AA2762177307840738F09F5F5F4F220F74
S1131420331F441FAA1FA9F333D00E2E3AF0E0E86D
S113143030D091505040E695001CCAF729D0FE2FB9
S113144027D0660F771F881FBB1F2617370748074B
S1131450AB07B0E809F0BB0B802DBF01FF27935801
S11314605F4F2AF09E3F510568F092C0DCC05F3F99
S1131470ECF3983EDCF3869577956795B795F795E9
S11314809F5FC9F7880F911D9695879597F90895E1
S1131490E1E0660F771F881FBB1F6217730784077D
S11314A0BA0720F0621B730B840BBA0BEE1F88F78C
S11314B0E095089504D06894B111B5C0089598D00A
S11314C088F09F5790F0B92F9927B751A0F0D1F029
S11314D0660F771F881F991F1AF0BA95C9F712C0B3
S11314E0B13081F09FD0B1E008959CC0672F782F70
S11314F08827B85F39F0B93FCCF38695779567951F
S1131500B395D9F73EF490958095709561957F4F8A
S11315108F4F9F4F0895E89409C097FB3EF4909530
S11315208095709561957F4F8F4F9F4F9923A9F0B8
S1131530F92F96E9BB279395F69587957795679547
S1131540B795F111F8CFFAF4BB0F11F460FF1BC08B
S11315506F5F7F4F8F4F9F4F16C0882311F096E91E
S113156011C0772321F09EE8872F762F05C06623CC
S113157071F096E8862F70E060E02AF09A95660F85
S1131580771F881FDAF7880F9695879597F908953E
S113159097F99F6780E870E060E008959FEF80EC22
S11315A0089500240A9416161706180609060895C5
S11315B000240A9412161306140605060895092E2B
S11315C00394000C11F4882352F0BB0F40F4BF2B9A
S11315D011F460FF04C06F5F7F4F8F4F9F4F0895DA
S11315E057FD9058440F551F59F05F3F71F04795D0
S11315F0880F97FB991F61F09F3F79F087950895B5
S1131600121613061406551FF2CF4695F1DF08C0D3
S1131610161617061806991FF1CF869571056105F0
S113162008940895E894BB2766277727CB0197F998
S1131630089566D008F48FEF08950BD0C0CFB1DFC2
S113164028F0B6DF18F0952309F0A2CFA7CF112414
S1131650EACFC6DFA0F3959FD1F3950F50E0551F55
S1131660629FF001729FBB27F00DB11D639FAA27F3
S1131670F00DB11DAA1F649F6627B00DA11D661F42
S1131680829F2227B00DA11D621F739FB00DA11D63
S1131690621F839FA00D611D221F749F3327A00D1D
S11316A0611D231F849F600D211D822F762F6A2FB9
S11316B011249F5750408AF0E1F088234AF0EE0F3E
S11316C0FF1FBB1F661F771F881F91505040A9F74B
S11316D09E3F510570F05CCFA6CF5F3FECF3983E80
S11316E0DCF3869577956795B795F795E7959F5FB2
S11316F0C1F7FE2B880F911D9695879597F908954C
S1131700990F0008550FAA0BE0E8FEEF161617060E
S1131710E807F907C0F012161306E407F50798F076
S1131720621B730B840B950B39F40A2661F0232B8F
S1131730242B252B21F408950A2609F4A140A6950B
S11317408FEF811D811D089597FB072E16F40094D9
S113175007D077FD09D00E94B80B07FC05D03EF4F2
S1131760909581959F4F0895709561957F4F089549
S1131770AA1BBB1B51E107C0AA1FBB1FA617B707B3
S113178010F0A61BB70B881F991F5A95A9F78095CF
S11317909095BC01CD010895EE0FFF1F0590F491C3
S11317A0E02D099411E0CEE6D1E004C0FE010E94D0
S11117B0CE0B2296C037D107C9F7F894FFCFAD
S11317BE49443A2041726D436F6E74726F6C0D0A18
S10517CE000015
S9030000FC
