:100000000EC028C027C026C025C024C023C022C0DF
:1000100021C020C04CC01EC01DC01CC01BC011246C
:100020001FBECFE5D2E0DEBFCDBF10E0A0E6B0E05E
:10003000E2E1F1E002C005900D92A236B107D9F7D6
:1000400020E0A2E6B0E001C01D92A436B207E1F7BD
:1000500006D05DC0D5CF86B380958170089588E1C4
:1000600087BBB898C09A1ABC13BE12BE83B785600E
:1000700083BF80E189BF7894C1E0EDDF8130E9F78B
:1000800080916200813021F4C3981092620005C013
:10009000811103C0C39AC09362002FEF84E39CE0F8
:1000A000215080409040E1F700C00000E6CF1F9251
:1000B0000F920FB60F9211248F93809162008111DD
:1000C00002C0C49A1EC08130E1F4809163008F3079
:1000D00099F480916000813021F4C49810926000FE
:1000E00008C080916000811104C0C49A81E08093AF
:1000F00060001092630005C0809163008F5F809361
:1001000063008F910F900FBE0F901F901895F89479
:02011000FFCF1F
:020112000100EA
:00000001FF
