S01400004472697665436F6E74726F6C2E7372656335
S11300000C94B6000C94D3000C94D3000C94D3003D
S11300100C94D3000C94D3000C94D3000C94D30010
S11300200C94D3000C94D3000C94D3000C94D30000
S11300300C94D3000C94D3000C94D3000C94D300F0
S11300400C94D3000C94D3000C94D3000C94D300E0
S11300500C94D3000C94D3000C94D3000C94D300D0
S11300600C94D3000C94D3000C94D3000C94D300C0
S11300700C94D3000C94D3000C94D3000C94D300B0
S11300800C94D3000C94D3000C94D3000C94D300A0
S11300900C94D3000C94D3000C94D3000C94D30090
S11300A00C94D3000C94D3000C94D3000C94D30080
S11300B00C94D3000C94D3000C94D3000C94D30070
S11300C00C94D3000C94D3000C94D3000C94D30060
S11300D00C94D3000C94D3000C94D3000C94D30050
S11300E00C94D3000C94D3000C94D3000C94D30040
S11300F00C94D3000C94D3000C94D3000C94D30030
S11301000C94D3000C94D3000C94D3000C94D3001F
S11301100C94D3000C94D3000C94D3000C94D3000F
S11301200C94D3000C94D3000C94D3000C94D300FF
S11301300C94D3000C94D3000C94D3000C94D300EF
S11301400C94D3000C94D3000C94D3000C94D300DF
S11301500C94D3000C94D3000C94D3000C94D300CF
S11301600C94D3000C94D3000C94D30011241FBE20
S1130170CFEFCDBFDFE2DEBF10E2A0E0B0E2E2EB02
S1130180F2E002C005900D92A431B107D9F720E244
S1130190A4E1B0E201C01D92A531B207E1F70E94CB
S11301A0D5000C9457010C940000CF93DF93CDB786
S11301B0DEB76397CDBFDEBF88ED84BF82E0809356
S11301C05000E0E5F0E0818181FFFDCF88ED84BF40
S11301D091E09093400084BFE0E5F0E0808184608A
S11301E08083818182FFFDCFE0E5F0E086818D7F11
S11301F08683E0E6F0E080818160808383E1E0E053
S1130200F0E2DE01119601900D928A95E1F7A0E4E7
S1130210B6E088E011968C93119784E012968C9343
S1130220129780E2E0E0F6E08283E0EAF8E083E01F
S113023085838FEC868317828481806184838481A3
S11302408860848381E08093142080EE11968C93DF
S113025080E090E020E036E040E456E010EE08C094
S1130260618165FFFDCF7083019602C080E090E05C
S1130270A1E0B0E0AC0FBD1FA80FB91F7C917111B4
S1130280EFCFD90118968C9185FF06C0DA01159637
S11302901C9380E090E0ECCFD90118968C9185FDF9
S11302A0E5CFDA0116961C9380E090E0E1CFF89454
S10502B0FFCF7A
S11302B254686973206973206120737472696E676C
S10702C20D0A00001D
S9030000FC
