:100000000C94B6000C94D3000C94D3000C94D30041
:100010000C94D3000C94D3000C94D3000C94D30014
:100020000C94D3000C94D3000C94D3000C94D30004
:100030000C94D3000C94D3000C94D3000C94D300F4
:100040000C94D3000C94D3000C94D3000C94D300E4
:100050000C94D3000C94D3000C94D3000C94D300D4
:100060000C94D3000C94A7010C94CD010C94D300F4
:100070000C94D3000C94D3000C94D3000C94D300B4
:100080000C94D3000C94D3000C94D3000C94D300A4
:100090000C94D3000C94D3000C94D3000C94D30094
:1000A0000C94D3000C94D3000C94D3000C94D30084
:1000B0000C94D3000C94D3000C94D3000C94D30074
:1000C0000C94D3000C94D3000C94D3000C94D30064
:1000D0000C94D3000C94D3000C94D3000C94D30054
:1000E0000C94D3000C94D3000C94D3000C94D30044
:1000F0000C94D3000C94D3000C94D3000C94D30034
:100100000C94D3000C94D3000C94D3000C94D30023
:100110000C94D3000C94D3000C94D3000C94D30013
:100120000C94D3000C94D3000C94D3000C94D30003
:100130000C94D3000C94D3000C94D3000C94D300F3
:100140000C94D3000C94D3000C94D3000C94D300E3
:100150000C94D3000C94D3000C94D3000C94D300D3
:100160000C94D3000C94D3000C94D30011241FBE24
:10017000CFEFCDBFDFE2DEBF10E2A0E0B0E2EAE504
:10018000F6E002C005900D92A031B107D9F720E248
:10019000A0E1B0E201C01D92A632B207E1F70E94D1
:1001A000D5000C942B030C940000CF93DF93CDB7B4
:1001B000DEB76497CDBFDEBF0E94F301E0E4F6E056
:1001C00088EE818384E0828380E2E0E0F6E082834F
:1001D0000E94160240E656E060EA79E0CE014196C0
:1001E0000E94AD02789480E1E0E0F0E2DE01119639
:1001F00001900D928A95E1F7B12CA12C00EA18E04C
:100200000F2EF2E78F2EF02D0F2EE12CF6E0FF2EB1
:10021000F02D0F2EF0E4CF2EF6E0DF2EF02D0F2E76
:10022000F0EE9F2EF02D0F2EF3E22F2EF0E23F2E58
:10023000F02D0F2EF2E24F2EF0E25F2EF02D0F2E5A
:10024000F1E26F2EF0E27F2EF02DBB2021F021E0B5
:10025000B21651F1FACF9981992361F0FE013296DD
:10026000D80111968C91119785FFFACF9C939191AB
:100270009111F6CFBFEFE3EDF0E3B150E040F04075
:10028000E1F700C0000081E190E20E94E8028823CB
:10029000E1F281E190E20E94F0028434B1F6D801EB
:1002A0008C92BB24B394D1CF81E190E20E94E8020A
:1002B000882351F081E190E20E94F002EA2DF0E003
:1002C000E05EFF4D8083A394B6E0AB1223C0809123
:1002D00010208823D1F0E4E2F0E2A080D1014C911B
:1002E000F2016081D3018C910E943B02A81209C0E7
:1002F000F1014081D2016C91CE0141960E946502CC
:1003000004C0CE0141960E949E0261E0C8010E9495
:100310003E02A12C80911020811104C0CE01419693
:100320000E949E02F701808585FF07C0D6011596C1
:100330009C9281E08093102088CFF701808585FD15
:1003400084CFD60116969C92109210207ECF1F92D9
:100350000F920FB60F9211242F933F934F935F93F9
:100360006F937F938F939F93AF93BF93EF93FF937D
:1003700081E190E20E94FC02FF91EF91BF91AF9169
:100380009F918F917F916F915F914F913F912F91AD
:100390000F900FBE0F901F9018951F920F920FB6DF
:1003A0000F9211242F933F934F935F936F937F93FB
:1003B0008F939F93AF93BF93EF93FF9381E190E26D
:1003C0000E941103FF91EF91BF91AF919F918F9187
:1003D0007F916F915F914F913F912F910F900FBE41
:1003E0000F901F90189588ED84BF82E08093500095
:1003F000E0E5F0E0818181FFFDCF88ED84BF91E0F1
:100400009093400084BFE0E5F0E0808184608083C9
:10041000818182FFFDCFE0E5F0E086818D7F8683DC
:10042000E0E6F0E0808181608083089541E060EA49
:1004300078E081E190E20E94DF02E0911120F091EA
:10044000122083E0858383818F7C80618383A0EA8F
:10045000B8E08FEC16968C93169717961C928481B1
:1004600080618483848188608483E0EAF0E0828113
:10047000816082830895642786270895FC01818125
:1004800085FFFDCF82E780830895DC01ED91FC912B
:100490001197818185FFFDCF80E88083ED91FC91EC
:1004A0001197818185FFFDCF6083ED91FC911197BC
:1004B000818185FFFDCF4083ED91FC91818185FF96
:1004C000FDCF640F6F77608308950F931F93CF93D1
:1004D000DF93EC01842F6F3761F06F3720F44FE723
:1004E000461B61E00BC066233CF441E8460F60E028
:1004F00005C040E060E002C040E060E08F3761F09E
:100500008F3720F40FE7081B15E00BC088233CF45D
:1005100001E8080F14E005C000E014E002C000E0AC
:1005200014E0CE010E944502402F612FCE010E94AF
:100530004502DF91CF911F910F910895CF93DF93E3
:10054000EC0140E060E00E94450240E064E0CE0142
:100550000E944502DF91CF910895CF93DF93EC0184
:10056000688379834A835B8388E0FA018183E88129
:10057000F98183E08583E881F9818FEC8683E881C6
:10058000F9811782E881F981848188608483FFEF93
:1005900023EC89E0F15020408040E1F700C00000EA
:1005A000E881F9818AEA808344E16EE0CE010E940D
:1005B0004502CE010E949E02DF91CF910895FC0179
:1005C0006083718342831486138616861586089588
:1005D000FC012385948581E0291301C080E0089502
:1005E000FC018485DF01A80FB11D13968C919485C1
:1005F0009F5F937094870895FC0183858F5F83705C
:100600009485A081B1812C91891749F09385DF01F0
:10061000A90FB11D13962C93838781E0089580E084
:100620000895FC0186859585981307C00190F08197
:10063000E02D83818C7F838308958685DF01A80F59
:10064000B11D17968C91A081B1818C9386858F5FA7
:0A065000837086870895F894FFCFA9
:10065A0049443A204D61696E44726976650D0A0013
:00000001FF
