:100000000C94B6000C94D3000C94D3000C94D30041
:100010000C94D3000C94D3000C94D3000C94D30014
:100020000C94D3000C94D3000C94D3000C94D30004
:100030000C94D3000C94D3000C94D3000C94D300F4
:100040000C94D3000C94D3000C94D3000C94D300E4
:100050000C94D3000C94D3000C94D3000C94D300D4
:100060000C94D3000C94D3000C94D3000C94D300C4
:100070000C94D3000C94D3000C94D3000C94D300B4
:100080000C94D3000C94D3000C94D3000C94D300A4
:100090000C94D3000C94D3000C94D3000C94D30094
:1000A0000C94D3000C94D3000C94D3000C94D30084
:1000B0000C94D3000C94D3000C94D3000C94D30074
:1000C0000C94D3000C94D3000C94D3000C94D30064
:1000D0000C94D3000C94D3000C94D3000C94D30054
:1000E0000C94D3000C94D3000C94D3000C94D30044
:1000F0000C94D3000C94D3000C94D3000C94D30034
:100100000C94D3000C94D3000C94D3000C94D30023
:100110000C94D3000C94D3000C94D3000C94D30013
:100120000C94D3000C94D3000C94D3000C94D30003
:100130000C94D3000C94D3000C94D3000C94D300F3
:100140000C94D3000C94D3000C94D3000C94D300E3
:100150000C94D3000C94D3000C94D3000C94D300D3
:100160000C94D3000C94D3000C94D30011241FBE24
:10017000CFEFCDBFDFE2DEBF10E2A0E0B0E2EAE801
:10018000F2E002C005900D92A431B107D9F720E248
:10019000A4E1B0E201C01D92A531B207E1F70E94CF
:1001A000D5000C9443010C940000CF93DF93CDB79E
:1001B000DEB76397CDBFDEBF88ED84BF82E080935A
:1001C0005000E0E5F0E0818181FFFDCF88ED84BF44
:1001D00081E08093400093E1E0E0F0E2DE011196DF
:1001E00001900D929A95E1F7A0E4B6E098E011969F
:1001F0009C93119794E012969C93129790E2E0E002
:10020000F6E09283E0EAF8E093E095839FEC968332
:1002100017829481906194839481986094838093F1
:10022000142080EE11968C9380E090E020E036E080
:1002300040E456E010EE08C0618165FFFDCF708399
:10024000019602C080E090E0A1E0B0E0AC0FBD1FDD
:10025000A80FB91F7C917111EFCFD90118968C911D
:1002600085FF06C0DA0115961C9380E090E0ECCF84
:10027000D90118968C9185FDE5CFDA0116961C936D
:0A02800080E090E0E1CFF894FFCF9A
:10028A0054686973206973206120737472696E6798
:04029A000D0A000049
:00000001FF
