S01400004472697665436F6E74726F6C2E7372656335
S11300000C94B6000C94D3000C94D3000C94D3003D
S11300100C94D3000C94D3000C94D3000C94D30010
S11300200C94D3000C94D3000C94D3000C94D30000
S11300300C94D3000C94D3000C946F020C94D30052
S11300400C94D3000C94D3000C94D3000C94D300E0
S11300500C94D3000C94D3000C94D3000C94D300D0
S11300600C94D3000C9423020C9449020C94D300F6
S11300700C94D3000C94D3000C94D3000C94D300B0
S11300800C94D3000C94D3000C94D3000C94D300A0
S11300900C94D3000C94D3000C94D3000C94D30090
S11300A00C94D3000C94D3000C94D3000C94D30080
S11300B00C94D3000C94D3000C94D3000C94D30070
S11300C00C94D3000C94D3000C94D3000C94D30060
S11300D00C94D3000C94D3000C94D3000C94D30050
S11300E00C94D3000C94D3000C94D3000C94D30040
S11300F00C94D3000C94D3000C94D3000C94D30030
S11301000C94D3000C94D3000C94D3000C94D3001F
S11301100C94D3000C94D3000C94D3000C94D3000F
S11301200C94D3000C94D3000C94D3000C94D300FF
S11301300C94D3000C948C020C94D3000C94D30034
S11301400C94D3000C94D3000C94D3000C94D300DF
S11301500C94D3000C94D3000C94D3000C94D300CF
S11301600C94D3000C94D3000C94D30011241FBE20
S1130170CFEFCDBFDFE2DEBF10E2A0E0B0E2EAE104
S1130180F8E002C005900D92A031B107D9F720E242
S1130190A0E1B0E201C01D92AE32B207E1F70E94C5
S11301A0D5000C940B040C940000CF93DF93CDB7CF
S11301B0DEB76497CDBFDEBF0E94B902E0E4F6E08B
S11301C088EE818384E0828380E2E0E0F6E082834B
S11301D088E0E0E8F6E081830E94DC022FEF83ED03
S11301E090E3215080409040E1F700C0000040E6D9
S11301F056E060EA79E0CE0141960E948D03E0E08A
S1130200F8E037E03083118289E09DE386A397A369
S113021021E02683E0E0F9E03083118282E19AE76D
S113022086A397A32683789480E1E0E0F0E2DE01E0
S1130230119601900D928A95E1F7B12C912C00EA68
S113024018E00F2EF2E78F2EF02D0F2EFBE22F2E4B
S1130250F0E23F2EF02D0F2EFAE24F2EF0E25F2E49
S1130260F02D0F2EF9E26F2EF0E27F2EF02D0F2EDF
S1130270E12CF6E0FF2EF02D0F2EF0E4CF2EF6E069
S1130280DF2EF02D6894AA24A7F8BB2021F0A1E06A
S1130290BA16D1F1BBC09981992361F0FE0132965F
S11302A0D80111968C91119785FFFACF9C93919167
S11302B09111F6CFBFEFE3EDF0E3B150E040F04031
S11302C0E1F700C0000089E190E20E94C80388239E
S11302D051F089E190E20E94D003823721F4D801E1
S11302E08C92BB24B3948091142090911520A091FA
S11302F01620B09117208093102090931120A09382
S11303001220B093132082C089E190E20E94C803B6
S1130310882351F089E190E20E94D003E92DF0E0B6
S1130320E85DFF4D80839394B6E09B1242C089E15F
S113033090E20E94160380911820882319F1ECE2C0
S1130340F0E29080D1014C91F2016081D3018C9153
S11303500E940103981209C0F1014081D2016C91FD
S1130360CE0141960E9445030DC080911820811151
S113037009C0BFEFE9EFF0E0B150E040F040E1F731
S113038000C0000040E060911820C8010E940403EE
S11303908091142090911520A0911620B0911720DF
S11303A08093102090931120A0931220B0931320D7
S11303B0912C8091142090911520A0911620B09139
S11303C017204091102050911120609112207091BB
S11303D01320841B950BA60BB70B0697A105B1053B
S11303E0A8F0CE0141960E947E0380911420909142
S11303F01520A0911620B09117208093102090937F
S11304001120A0931220B0931320B12C80911820B6
S1130410811104C0CE0141960E947E03D701189633
S11304208C9185FF06C0F601A68281E08093182096
S11304302CCFD70118968C9185FD27CFF601A58284
S11304401092182022CF1F920F920FB60F921124F0
S11304502F933F934F935F936F937F938F939F93C8
S1130460AF93BF93EF93FF9389E190E20E94DC0383
S1130470FF91EF91BF91AF919F918F917F916F9178
S11304805F914F913F912F910F900FBE0F901F904E
S113049018951F920F920FB60F9211242F933F932A
S11304A04F935F936F937F938F939F93AF93BF9378
S11304B0EF93FF9389E190E20E94F103FF91EF91A2
S11304C0BF91AF919F918F917F916F915F914F9168
S11304D03F912F910F900FBE0F901F9018951F9270
S11304E00F920FB60F9211248F93EF93FF93809185
S11304F01820882329F088E0E0E8F6E0878304C028
S113050088E0E0E8F6E08583FF91EF918F910F900A
S11305100FBE0F901F9018951F920F920FB60F9257
S113052011248F939F93AF93BF93EF93FF9380E234
S1130530E0E4F6E087838091142090911520A09147
S11305401620B09117200196A11DB11D809314208F
S113055090931520A0931620B0931720FF91EF914C
S1130560BF91AF919F918F910F900FBE0F901F90ED
S1130570189588ED84BF82E080935000E0E5F0E0B8
S1130580818181FFFDCF88ED84BF91E0909340008D
S113059084BFE0E5F0E0808184608083818182FF14
S11305A0FDCFE0E5F0E086818D7F8683E0E6F0E034
S11305B0808181608083089541E060EA78E089E188
S11305C090E20E94BF03E0911920F0911A2083E089
S11305D0858383818F7C80618383A0EAB8E08FEC7C
S11305E016968C93169717961C9284818061848347
S11305F0848188608483E0EAF0E082818160828380
S11306000895642786270895FC01818185FFFDCF25
S11306108FEF8083818185FFFDCF440F642B60833E
S1130620818185FFFDCF8FEF80830895CF93DF9382
S1130630EC0103C0CE010E94D003CE010E94C80386
S11306408111F8CFDF91CF910895DC01ED91FC91F8
S11306501197818185FFFDCF80E88083ED91FC9126
S11306601197818185FFFDCF6083ED91FC911197F6
S1130670818185FFFDCF4083ED91FC91818185FFD0
S1130680FDCF640F6F77608308950F931F93CF930B
S1130690DF93EC01842F6F3761F06F3720F44FE75D
S11306A0461B61E00BC066233CF441E8460F60E062
S11306B005C040E060E002C040E060E08F3761F0D8
S11306C08F3720F40FE7081B15E00BC088233CF498
S11306D001E8080F14E005C000E014E002C000E0E7
S11306E014E0CE010E942503402F612FCE010E9409
S11306F02503DF91CF911F910F910895CF93DF933D
S1130700EC0140E060E00E94250340E064E0CE019B
S11307100E942503DF91CF910895CF93DF93EC01DD
S1130720688379834A835B8388E0FA018183E88163
S1130730F98183E08583E881F9818FEC8683E88100
S1130740F9811782E881F981848188608483FFEFCD
S113075023EC89E0F15020408040E1F700C0000024
S1130760E881F9818AEA808344E16EE0CE010E9447
S11307702503CE010E947E03DF91CF910895FC01F1
S113078060837183428314861386168615860895C2
S1130790FC012385948581E0291301C080E008953C
S11307A0FC018485DF01A80FB11D13968C919485FB
S11307B09F5F937094870895FC0183858F5F837096
S11307C09485A081B1812C91891749F09385DF012B
S11307D0A90FB11D13962C93838781E0089580E0BF
S11307E00895FC0186859585981307C00190F081D2
S11307F0E02D83818C7F838308958685DF01A80F94
S1130800B11D17968C91A081B1818C9386858F5FE1
S10D0810837086870895F894FFCFE3
S113081A49443A204D61696E44726976650D0A004D
S9030000FC
