:100000000C94B6000C94D3000C94D3000C94D30041
:100010000C94D3000C94D3000C94D3000C94D30014
:100020000C94D3000C94D3000C94D3000C94D30004
:100030000C94D3000C94D3000C9469020C94D3005C
:100040000C94D3000C94D3000C94D3000C94D300E4
:100050000C94D3000C94D3000C94D3000C94D300D4
:100060000C94D3000C941D020C9443020C94D30006
:100070000C94D3000C94D3000C94D3000C94D300B4
:100080000C94D3000C94D3000C94D3000C94D300A4
:100090000C94D3000C94D3000C94D3000C94D30094
:1000A0000C94D3000C94D3000C94D3000C94D30084
:1000B0000C94D3000C94D3000C94D3000C94D30074
:1000C0000C94D3000C94D3000C94D3000C94D30064
:1000D0000C94D3000C94D3000C94D3000C94D30054
:1000E0000C94D3000C94D3000C94D3000C94D30044
:1000F0000C94D3000C94D3000C94D3000C94D30034
:100100000C94D3000C94D3000C94D3000C94D30023
:100110000C94D3000C94D3000C94D3000C94D30013
:100120000C94D3000C94D3000C94D3000C94D30003
:100130000C94D3000C9486020C94D3000C94D3003E
:100140000C94D3000C94D3000C94D3000C94D300E3
:100150000C94D3000C94D3000C94D3000C94D300D3
:100160000C94D3000C94D3000C94D30011241FBE24
:10017000CFEFCDBFDFE2DEBF10E2A0E0B0E2EEE005
:10018000F8E002C005900D92A031B107D9F720E246
:10019000A0E1B0E201C01D92AE32B207E1F70E94C9
:1001A000D5000C9405040C940000CF93DF93CDB7D9
:1001B000DEB76497CDBFDEBF0E94B302E0E4F6E095
:1001C00088EE818384E0828380E2E0E0F6E082834F
:1001D00088E0E0E8F6E081830E94D6022FEF83ED0D
:1001E00090E3215080409040E1F700C0000040E6DD
:1001F00056E060EA79E0CE0141960E947D03E0E09E
:10020000F8E037E03083118289E09DE386A397A36D
:1002100021E02683E0E0F9E03083118282E19AE771
:1002200086A397A32683789480E1E0E0F0E2DE01E4
:10023000119601900D928A95E1F7B12C912C00EA6C
:1002400018E00F2EF2E78F2EF02D0F2EFBE22F2E4F
:10025000F0E23F2EF02D0F2EFAE24F2EF0E25F2E4D
:10026000F02D0F2EF9E26F2EF0E27F2EF02D0F2EE3
:10027000E12CF6E0FF2EF02D0F2EF0E4CF2EF6E06D
:10028000DF2EF02D6894AA24A7F8BB2029F0A1E066
:10029000BA1609F442C0BCC09981992361F0FE01ED
:1002A0003296D80111968C91119785FFFACF9C93C5
:1002B00091919111F6CFBFEFE3EDF0E3B150E04043
:1002C000F040E1F700C0000089E190E20E94C20323
:1002D000882391F089E190E20E94CA03823761F499
:1002E000CE0141960E94AF0389E190E20E94100383
:1002F000D8018C92BB24B394809114209091152046
:10030000A0911620B0911720809310209093112077
:10031000A0931220B09313207BC089E190E20E9449
:10032000C203882351F089E190E20E94CA03E92DBB
:10033000F0E0E85DFF4D80839394B6E09B123BC0F4
:1003400089E190E20E941003809118208823B1F087
:10035000ECE2F0E29080D1014C91F2016081D30196
:100360008C910E94FB0298120FC0F1014081D201D2
:100370006C91CE0141960E943F0306C04FE76FE7A4
:10038000CE0141960E943F0340E060911820C801D1
:100390000E94FE028091142090911520A0911620B9
:1003A000B09117208093102090931120A0931220D9
:1003B000B0931320912C8091142090911520A0913E
:1003C0001620B0911720409110205091112060917B
:1003D000122070911320841B950BA60BB70B459729
:1003E000A105B105A8F0CE0141960E947803809145
:1003F000142090911520A0911620B0911720809381
:10040000102090931120A0931220B0931320B12CB0
:10041000F701808585FF07C0D6011696AC9281E072
:100420008093182032CFF701808585FD2ECFD6012D
:100430001596AC921092182028CF1F920F920FB6EB
:100440000F9211242F933F934F935F936F937F935A
:100450008F939F93AF93BF93EF93FF9389E190E2C4
:100460000E94D603FF91EF91BF91AF919F918F9121
:100470007F916F915F914F913F912F910F900FBEA0
:100480000F901F9018951F920F920FB60F92112484
:100490002F933F934F935F936F937F938F939F938C
:1004A000AF93BF93EF93FF9389E190E20E94EB0338
:1004B000FF91EF91BF91AF919F918F917F916F913C
:1004C0005F914F913F912F910F900FBE0F901F9012
:1004D00018951F920F920FB60F9211248F93EF93DE
:1004E000FF9380911820882329F088E0E0E8F6E067
:1004F000878304C088E0E0E8F6E08583FF91EF9110
:100500008F910F900FBE0F901F9018951F920F9212
:100510000FB60F9211248F939F93AF93BF93EF93D6
:10052000FF9380E2E0E4F6E08783809114209091CD
:100530001520A0911620B09117200196A11DB11D84
:100540008093142090931520A0931620B093172029
:10055000FF91EF91BF91AF919F918F910F900FBE3F
:100560000F901F90189588ED84BF82E08093500013
:10057000E0E5F0E0818181FFFDCF88ED84BF91E06F
:100580009093400084BFE0E5F0E080818460808348
:10059000818182FFFDCFE0E5F0E086818D7F86835B
:1005A000E0E6F0E0808181608083089541E060EAC8
:1005B00078E089E190E20E94B903E0911920F0917E
:1005C0001A2083E0858383818F7C80618383A0EA06
:1005D000B8E08FEC16968C93169717961C92848130
:1005E00080618483848188608483E0EAF0E0828192
:1005F000816082830895642786270895FC018181A4
:1006000085FFFDCF8FEF8083818185FFFDCF440F74
:10061000642B6083818185FFFDCF8FEF80830895F8
:10062000CF93DF93EC0103C0CE010E94CA03CE0139
:100630000E94C2038111F8CFDF91CF910895DC01B0
:10064000ED91FC911197818185FFFDCF80E880833A
:10065000ED91FC911197818185FFFDCF6083ED9134
:10066000FC911197818185FFFDCF4083ED91FC9135
:10067000818185FFFDCF640F6F77608308950F93AD
:100680001F93CF93DF93EC01842F6F3761F06F37A7
:1006900020F44FE7461B61E00BC066233CF441E8C1
:1006A000460F60E005C040E060E002C040E060E06E
:1006B0008F3761F08F3720F40FE7081B15E00BC070
:1006C00088233CF401E8080F14E005C000E014E0C2
:1006D00002C000E014E0CE010E941F03402F612FF2
:1006E000CE010E941F03DF91CF911F910F910895BA
:1006F0004FE76FE70E943F030895CF93DF93EC012C
:10070000688379834A835B8388E0FA018183E88187
:10071000F98183E08583E881F9818FEC8683E88124
:10072000F9811782E881F981848188608483FFEFF1
:1007300023EC89E0F15020408040E1F700C0000048
:10074000E881F9818AEA808344E16EE0CE010E946B
:100750001F03CE010E947803DF91CF910895DC0141
:10076000ED91FC912AEA208344E16EE00E941F0390
:100770000895FC0160837183428314861386168674
:1007800015860895FC012385948581E0291301C015
:1007900080E00895FC018485DF01A80FB11D139648
:1007A0008C9194859F5F937094870895FC01838555
:1007B0008F5F83709485A081B1812C91891749F056
:1007C0009385DF01A90FB11D13962C93838781E0D8
:1007D000089580E00895FC0186859585981307C0EB
:1007E0000190F081E02D83818C7F8383089586853D
:1007F000DF01A80FB11D17968C91A081B1818C9358
:0E08000086858F5F837086870895F894FFCFFA
:10080E0049443A204D61696E44726976650D0A005D
:00000001FF
