S01500004472697665466565646261636B2E7372656310
S11300000C9434000C9451000C9451000C94510045
S11300100C9451000C9451000C9451000C94510018
S11300200C9451000C9451000C9451000C94510008
S11300300C9451000C9451000C9451000C945100F8
S11300400C9451000C9451000C9451000C945100E8
S11300500C9451000C9451000C9451000C945100D8
S11300600C9451000C94510011241FBECFEFD8E022
S1130070DEBFCDBF11E0A0E0B1E0E2E6FBE002C0EC
S113008005900D92A433B107D9F721E0A4E3B1E0C0
S113009001C01D92A839B207E1F70E94BE000C947A
S11300A0AF050C940000389839983A983B983C98DE
S11300B03D9852985398549A559A569A579A219A19
S11300C0229A299A5F9A2A98519A5098089520E082
S11300D030E040E851E40E947B029B01AC0160E007
S11300E074E284E79BE40E94910120E030E040E860
S11300F05FE30E942C010E94F9017093C500609394
S1130100C40088E98093C10086E08093C20008950A
S1130110E0ECF0E0908195FFFDCF8093C600089558
S1130120CF93DF93EC018881882331F021960E94DC
S1130130880089918111FBCFDF91CF91089596B109
S113014066B146B186B156B156B159B159B1627072
S113015070E0660F771F292F217030E0262B372B94
S1130160447050E0440F551F440F551F242B352B6A
S11301708870880F880F880F822B08950E9453007F
S11301802FEF89E698E1215080409040E1F700C0CC
S1130190000060E070E086E196E40E9467002FEFC3
S11301A089E698E1215080409040E1F700C00000CA
S11301B080E091E00E9490002FEF87EA91E62150C1
S11301C080409040E1F700C000000CE111E0C4E37E
S11301D0D1E05C985D985E9A8FE39CE90197F1F712
S11301E000C000000E949F005D9A8FE39CE9019784
S11301F0F1F700C000000E949F005D985E988FE3B5
S11302009CE90197F1F700C000000E949F005D9AED
S11302108FE39CE90197F1F700C000000E949F0062
S11302205C9A1F928F931F930F93DF93CF930E9437
S1130230DE02CE010E9490008FEF91EE24E0815007
S113024090402040E1F700C000000F900F900F9005
S11302500F900F900F90BDCF5058BB27AA270ED0F8
S113026010C101D130F006D120F031F49F3F11F4D8
S11302701EF4F6C00EF4E095E7FBECC0E92F12D1B2
S113028080F3BA17620773078407950718F071F4AF
S11302909EF52AC10EF4E0950B2EBA2FA02D0B016A
S11302A0B90190010C01CA01A0011124FF27591BB7
S11302B099F0593F50F4503E68F11A16F040A22FBD
S11302C0232F342F4427585FF3CF4695379527952E
S11302D0A795F0405395C9F77EF41F16BA0B620B2D
S11302E0730B840BBAF09150A1F0FF0FBB1F661F74
S11302F0771F881FC2F70EC0BA0F621F731F841FB7
S113030048F4879577956795B795F7959E3F08F0DC
S1130310B3CF9395880F08F09927EE0F979587959B
S113032008950CD0AEC0A6D040F09DD030F021F49A
S11303305F3F19F08FC05111D8C092C0B3D098F369
S11303409923C9F35523B1F3951B550BBB27AA2752
S113035062177307840738F09F5F5F4F220F331FC4
S1130360441FAA1FA9F333D00E2E3AF0E0E830D090
S113037091505040E695001CCAF729D0FE2F27D093
S1130380660F771F881FBB1F261737074807AB0761
S1130390B0E809F0BB0B802DBF01FF2793585F4FD6
S11303A02AF09E3F510568F055C09FC05F3FECF3B3
S11303B0983EDCF3869577956795B795F7959F5F9B
S11303C0C9F7880F911D9695879597F90895E1E0EF
S11303D0660F771F881FBB1F621773078407BA074E
S11303E020F0621B730B840BBA0BEE1F88F7E095A9
S11303F0089504D06894B11178C008955BD088F052
S11304009F5790F0B92F9927B751A0F0D1F0660FFC
S1130410771F881F991F1AF0BA95C9F712C0B13017
S113042081F062D0B1E008955FC0672F782F8827EC
S1130430B85F39F0B93FCCF3869577956795B39556
S1130440D9F73EF490958095709561957F4F8F4FC5
S11304509F4F089597F99F6780E870E060E00895E2
S11304609FEF80EC089500240A94161617061806C8
S11304700906089500240A941216130614060506A4
S11304800895092E0394000C11F4882352F0BB0F35
S113049040F4BF2B11F460FF04C06F5F7F4F8F4F98
S11304A09F4F089557FD9058440F551F59F05F3FD3
S11304B071F04795880F97FB991F61F09F3F79F082
S11304C087950895121613061406551FF2CF469504
S11304D0F1DF08C0161617061806991FF1CF869586
S11304E07105610508940895E894BB27662777276A
S11304F0CB0197F908950BD0C4CFB5DF28F0BADF4C
S113050018F0952309F0A6CFABCF1124EECFCADFA4
S1130510A0F3959FD1F3950F50E0551F629FF00112
S1130520729FBB27F00DB11D639FAA27F00DB11D6B
S1130530AA1F649F6627B00DA11D661F829F2227F4
S1130540B00DA11D621F739FB00DA11D621F839F7B
S1130550A00D611D221F749F3327A00D611D231F51
S1130560849F600D211D822F762F6A2F11249F579F
S113057050408AF0E1F088234AF0EE0FFF1FBB1FC2
S1130580661F771F881F91505040A9F79E3F510561
S113059070F060CFAACF5F3FECF3983EDCF3869512
S11305A077956795B795F795E7959F5FC1F7FE2B0C
S11305B0880F911D9695879597F90895AEE0B0E060
S11305C0E4EEF2E00C9486050D891E8986E08C83A6
S11305D01A8309838FEF9FE79E838D83AE01475E65
S11305E05F4F6F89788DCE0101960E940003EF81E1
S11305F0F885E00FF11F10822E96E4E00C94A2051A
S1130600ACE0B0E0E6E0F3E00C9478057C016B012B
S11306108A01FC0117821682838181FFBDC1CE014C
S113062001964C01F7019381F60193FD859193FFA7
S113063081916F01882309F4ABC1853239F493FDAC
S1130640859193FF81916F01853229F4B70190E080
S11306500E94E804E7CF512C312C20E02032A0F492
S11306608B3269F030F4803259F0833269F42061BE
S11306702CC08D3239F0803339F4216026C02260D9
S1130680246023C0286021C027FD27C030ED380F27
S11306903A3078F426FF06C0FAE05F9E300D11244C
S11306A0532E13C08AE0389E300D1124332E20625D
S11306B00CC08E3221F426FD6BC1206406C08C363A
S11306C011F4206802C0883641F4F60193FD859147
S11306D093FF81916F018111C1CF982F9F7D955414
S11306E0933028F40C5F1F4FFFE3F9830DC083366A
S11306F031F0833771F0833509F05BC022C0F80113
S1130700808189830E5F1F4F44244394512C5401EC
S113071015C03801F2E06F0E711CF801A080B180A1
S113072026FF03C0652D70E002C06FEF7FEFC501A7
S11307302C870E94DD042C0183012C852F77222E27
S113074017C03801F2E06F0E711CF801A080B1806F
S113075026FF03C0652D70E002C06FEF7FEFC50177
S11307602C870E94D2042C012C852068222E830120
S113077023FC1BC0832D90E048165906B0F4B70142
S113078080E290E00E94E8043A94F4CFF50127FC5B
S1130790859127FE81915F01B70190E00E94E804F2
S11307A031103A94F1E04F1A51084114510471F791
S11307B0E5C0843611F0893639F5F80127FF07C002
S11307C060817181828193810C5F1F4F08C06081B9
S11307D07181882777FD8095982F0E5F1F4F2F76A4
S11307E0B22E97FF09C090958095709561957F4FC3
S11307F08F4F9F4F2068B22E2AE030E0A4010E9460
S11308001A05A82EA81844C0853729F42F7EB22EC5
S11308102AE030E025C0F22FF97FBF2E8F36C1F0D9
S113082018F4883579F0B4C0803719F0883721F08E
S1130830AFC02F2F2061B22EB4FE0DC08B2D84606B
S1130840B82E09C024FF0AC09F2F9660B92E06C097
S113085028E030E005C020E130E002C020E132E0D1
S1130860F801B7FE07C060817181828193810C5FBA
S11308701F4F06C06081718180E090E00E5F1F4FC2
S1130880A4010E941A05A82EA818FB2DFF77BF2EDD
S1130890B6FE0BC02B2D2E7FA51450F4B4FE0AC057
S11308A0B2FC08C02B2D2E7E05C07A2C2B2D03C044
S11308B07A2C01C0752C24FF0DC0FE01EA0DF11D38
S11308C08081803311F4297E09C022FF06C073940D
S11308D0739404C0822F867809F0739423FD13C0A7
S11308E020FF06C05A2C731418F4530C5718732C99
S11308F0731468F4B70180E290E02C870E94E80446
S113090073942C85F5CF731410F4371801C0312C6F
S113091024FF12C0B70180E390E02C870E94E80412
S11309202C8522FF17C021FF03C088E590E002C098
S113093088E790E0B7010CC0822F867859F021FD3A
S113094002C080E201C08BE227FD8DE2B70190E096
S11309500E94E804A51438F4B70180E390E00E94F3
S1130960E8045A94F7CFAA94F401EA0DF11D8081AA
S1130970B70190E00E94E804A110F5CF332009F4F8
S113098051CEB70180E290E00E94E8043A94F6CF99
S1130990F7018681978102C08FEF9FEF2C96E2E1E9
S11309A00C949405FC010590615070400110D8F737
S11309B0809590958E0F9F1F0895FC0161507040A3
S11309C001900110D8F7809590958E0F9F1F089580
S11309D00F931F93CF93DF93182F092FEB018B8174
S11309E081FD03C08FEF9FEF20C082FF10C04E81B6
S11309F05F812C813D81421753077CF4E881F981A2
S1130A009F012F5F3F4F39832883108306C0E885F9
S1130A10F985812F0995892B29F72E813F812F5F35
S1130A203F4F3F832E83812F902FDF91CF911F91D2
S1130A300F910895FA01AA27283051F1203181F14C
S1130A40E8946F936E7F6E5F7F4F8F4F9F4FAF4FD2
S1130A50B1E03ED0B4E03CD0670F781F891F9A1FE5
S1130A60A11D680F791F8A1F911DA11D6A0F711D99
S1130A70811D911DA11D20D009F468943F912AE0A5
S1130A80269F11243019305D3193DEF6CF0108958D
S1130A90462F4770405D4193B3E00FD0C9F7F6CFBE
S1130AA0462F4F70405D4A3318F0495D31FD405286
S1130AB0419302D0A9F7EACFB4E0A695979587951C
S1130AC077956795BA95C9F70097610571050895FB
S1130AD09B01AC010A2E06945795479537952795A7
S1130AE0BA95C9F7620F731F841F951FA01D08953F
S1130AF02F923F924F925F926F927F928F929F922A
S1130B00AF92BF92CF92DF92EF92FF920F931F9317
S1130B10CF93DF93CDB7DEB7CA1BDB0B0FB6F894C8
S1130B20DEBF0FBECDBF09942A88398848885F8408
S1130B306E847D848C849B84AA84B984C884DF8079
S1130B40EE80FD800C811B81AA81B981CE0FD11D5D
S1130B500FB6F894DEBF0FBECDBFED010895F89433
S1050B60FFCFC1
S1130B6244657669636520496E697469616C697A62
S1130B7265642121210D0A0D0A0D0A0054686520BD
S1130B826C73622076616C75652069733A20256402
S1070B922E0D0A0016
S9030000FC
