:100000000C9472000C9493000C9493000C94930045
:100010000C9493000C9493000C9493000C94930014
:100020000C9493000C9493000C9493000C94930004
:100030000C9493000C9493000C9493000C949300F4
:100040000C9493000C9493000C9493000C949300E4
:100050000C9493000C9493000C9493000C949300D4
:100060000C9493000C94F8020C9493000C9493005D
:100070000C9493000C9493000C9493000C949300B4
:100080000C9493000C9493000C9493000C949300A4
:100090000C9493000C9493000C9493000C94930094
:1000A0000C9493000C9493000C9493000C94930084
:1000B0000C9493000C9493000C9493000C94930074
:1000C0000C9493000C9493000C9493000C94930064
:1000D0000C9493000C9493000C9493000C94930054
:1000E0000C94930011241FBECFEFD1E2DEBFCDBF31
:1000F00000E00CBF12E0A0E0B2E0ECE7F7E100E0C6
:100100000BBF02C007900D92AA35B107D9F712E0D4
:10011000AAE5B2E001C01D92AA36B107E1F70E943C
:1001200092090C94BC0B0C940000279A08958F92AE
:100130009F92AF92BF920F931F93CF93DF934B0188
:100140005C0120E030E04AE755E40E9494058B0111
:10015000D82FC92F20E030E040E85FE3FE01712F87
:100160008F2F9E2F0E947A0787FD36C020E03FEF39
:100170004FE757E4FE01602F712F8F2F9E2F0E94B3
:100180001C071816B4F420E030E040E251E4C50149
:10019000B4010E9494050E94AF036115710599F0A6
:1001A00020E931E0C9010197F1F761507109D1F7F8
:1001B0000AC09E01602F712F832F922F0E94AF03E0
:1001C000CB010197F1F7DF91CF911F910F91BF9074
:1001D000AF909F908F90089561E070E0F1CF8AEA30
:1001E0000E94F10280E80E94F10280E00E94F10288
:1001F00080E00E94F10280E00E94F10280E80E940B
:10020000F10284E00E94F10280E00E94F10284E0A9
:100210000C94F102CF92DF92EF92FF920F931F9313
:10022000CF93DF931F92CDB7DEB7D82E613009F49C
:1002300049C06623B1F1623009F44DC0162FF42E87
:10024000460F213099F12223B9F12230F1F1C22E6B
:10025000E02EE20E8D2D49830E94F102812F0E9433
:10026000F1028F2D0E94F1024981842F8D0D8F772D
:100270000E94F1028D2D0E94F1028C2D0E94F1024C
:10028000802F0E94F1028E2D8D0D8F770F90DF91C0
:10029000CF911F910F91FF90EF90DF90CF900C9432
:1002A000F102F42E4F5F11E0213069F654E0E52EA3
:1002B000E00E64E0C62ECECF25E0E22EE00E35E063
:1002C000C32EC8CFF42E10E0BCCF84E0E82E00E0AF
:1002D00094E0C92EBFCF40E0F12C10E0B2CF0F93D5
:1002E0001F93CF93DF931F92CDB7DEB78230D9F043
:1002F000062F8130E1F0811101C011E080E86983AF
:100300000E94F102812F0E94F102802F0E94F102CF
:100310006981862F810F8F770F90DF91CF911F9189
:100320000F910C94F10200E010E060E0E7CF10E0E4
:10033000E5CF0F931F93CF93DF931F92CDB7DEB717
:100340008230D9F0062F8130E1F0811101C015E033
:1003500080E869830E94F102812F0E94F102802FC0
:100360000E94F1026981862F810F8F770F90DF91B4
:10037000CF911F910F910C94F10200E010E060E02A
:10038000E7CF14E0E5CF680F640F862F8F770895CD
:1003900080E80E94F10280E00E94F10280E00E9469
:1003A000F10280E00E94F10280E80E94F10284E004
:1003B0000E94F10280E00E94F10284E00C94F102BC
:1003C000CF93DF93C0E880E80E94F10280E00E94B2
:1003D000F102DC2FD0588D2F0E94F1028C2F8F77E5
:1003E0000E94F10280E80E94F10284E00E94F10282
:1003F0008D2F0E94F1028C2F8C5F8F770E94F1026B
:1004000060E070E080EA91E40E949700CF5FD9F647
:1004100080E80E94F10280E00E94F102DC2FD058B7
:100420008D2F0E94F1028C2F8F770E94F10280E8BD
:100430000E94F10284E00E94F1028D2F0E94F102DD
:100440008C2F8C5F8F770E94F10260E070E080EA71
:1004500091E40E949700C150C038D1F6C1E880E80D
:100460000E94F10281E00E94F102DC2FD1588D2F11
:100470000E94F1028C2F8F770E94F10280E80E9487
:10048000F10285E00E94F1028D2F0E94F1028C2F73
:100490008C5F8F770E94F10260E070E080EA91E467
:1004A0000E949700CF5FC130D1F680E80E94F10230
:1004B00081E00E94F102DC2FD1588D2F0E94F102C1
:1004C0008C2F8F770E94F10280E80E94F10285E074
:1004D0000E94F1028D2F0E94F1028C2F8C5F8F778A
:1004E0000E94F10260E070E080EA91E40E949700CF
:1004F000C150C138D1F6DF91CF910895E4E6F0E024
:1005000020812D7F208320E030E040E851E40E94EC
:1005100094059B01AC0160E074E284E79BE40E94D7
:10052000790620E030E040E85FE30E9464050E9425
:10053000A907872F992787FD9A958093C500609317
:10054000C40088E98093C10086E08093C2000895CA
:100550009091C00095FFFCCF8093C6000895FC01E8
:100560002081222351F031968091C00085FFFCCF7D
:100570002093C60021912111F7CF08958091C000EA
:1005800087FD02C08FEF08958091C6000895E5E6CB
:10059000F0E020812E7F208320E030E040E851E42D
:1005A0000E9494059B01AC0160E074E284E79BE447
:1005B0000E94790620E030E040E85FE30E94640595
:1005C0000E94A907872F992787FD9A958093CD00D0
:1005D0006093CC0088E18093C90086E08093CA00D4
:1005E00008959091C80095FFFCCF8093CE000895A8
:1005F0001F920F920FB60F9211240BB60F92EF922B
:10060000FF920F931F932F933F934F935F936F939B
:100610007F938F939F93AF93BF93EF93FF93CF936A
:10062000DF93CDB7DEB72997DEBFCDBFE09167027C
:10063000F0E08091C600E65AFD4F8083809167020A
:100640008F5F80936702809167028C30F9F0299662
:100650000FB6F894DEBF0FBECDBFDF91CF91FF91F3
:10066000EF91BF91AF919F918F917F916F915F912A
:100670004F913F912F911F910F91FF90EF900F900D
:100680000BBE0F900FBE0F901F901895109267022F
:1006900080915C028F8380915D02888780915E02E9
:1006A0008D8380915F028E83809160028B83809125
:1006B00061028C83809162028983809163028A83C4
:1006C00040E150E060E070E0CE01079629870E948B
:1006D0003B0A40E150E060E070E0CE0105960E94E8
:1006E0003B0A162F40E150E060E070E0CE01039637
:1006F0000E943B0AF62E062F40E150E060E070E0D9
:10070000CE0101960E943B0A29851F3709F11F3748
:1007100098F48FE7811B182FE12C8FE7F816E1F092
:100720008EE78F1578F00FE70F1920E0412F6E2D1F
:1007300080E80E940A018BCF17FFEFCF1F57EE24EE
:10074000E394EBCFF7FEF2CF0F2D0F5721E0EECF62
:10075000EE24E39410E0E1CF21E000E0E7CFCF9278
:10076000DF92EF92FF920F931F936B017C0120E0C9
:1007700030E040E05FE40E944B0787FD0EC020E0C0
:1007800030E040E05FE4C701B6010E9464050E94CA
:10079000A9078B019C01305806C0C701B6010E9411
:1007A000A9078B019C01B801C9011F910F91FF900E
:1007B000EF90DF90CF900895A4E0B0E0E2EEF3E098
:1007C0000C94060A7C016A01FC018081823008F4E5
:1007D0004AC1FB019081923008F442C1843079F41F
:1007E000943009F040C1F7019181FB018181981794
:1007F00009F439C1A0E0EA2EA2E0FA2E34C1943007
:1008000009F42EC1923091F4823009F02CC188E0B5
:10081000F701DA0101900D928A95E1F7FB018181E0
:10082000F70191818923FA0181831CC1823009F487
:1008300017C1F70182819381FB01A281B381F70186
:100840000481158126813781FB0184809580A680F3
:10085000B780FC01EA1BFB0BAF01F7FF04C0442784
:1008600055274E1B5F0B403251050CF074C01E160D
:100870001F06B4F524013501042E04C07694679454
:10088000579447940A94D2F749825A826B827C82A9
:10089000412C512C3201439404C0440C551C661C5D
:1008A000771C4A95D2F741E0441A51086108710853
:1008B000482059206A207B20812C912C540183945C
:1008C00045284628472819F4812C912C5401498049
:1008D0005A806B807C8084289528A628B72846C03B
:1008E000EF2B09F443C0840F951F28013901042E12
:1008F00004C076946794579447940A94D2F7498237
:100900005A826B827C82412C512C3201439404C068
:10091000440C551C661C771C4A95D2F741E0441ADA
:10092000510861087108402251226222732201E0BD
:1009300010E020E030E045284628472819F400E080
:1009400010E0980149805A806B807C800429152929
:10095000262937290BC0A817B90724F4812C912C1C
:10096000540104C0CD0100E010E09801F70141817D
:10097000FB015181451709F446C0442349F0240185
:100980003501401A510A620A730A9301820104C0B8
:10099000081919092A093B0937FD05C0F60111821A
:1009A000938382830CC041E0F60141839383828369
:1009B00030952095109501951F4F2F4F3F4F048381
:1009C0001583268337830EC0880F991FAA1FBB1F6C
:1009D000F60184839583A683B783828193810197EF
:1009E00093838283F60184819581A681B781AC01CE
:1009F000BD0141505109610971094F3F5F4F6F4F70
:100A00007F4310F30CC0F601418393838283080D6A
:100A1000191D2A1D3B1D048315832683378383E01C
:100A2000F6018083448155816681778177FF1AC002
:100A3000DB01CA0181709927AA27BB2776956795A4
:100A400057954795842B952BA62BB72B848395839D
:100A5000A683B7838281938101969383828302C0A8
:100A60007B0101C07601C7012496E0E10C94220AC3
:100A7000A0E2B0E0EEE3F5E00C94140A6D8F7E8FF7
:100A80008F8F98A3298F3A8F4B8F5C8FBE016F5E3B
:100A90007F4FCE014D960E94C208BE01675F7F4F17
:100AA000CE0149960E94C208AE014F5F5F4FBE0162
:100AB000675F7F4FCE0141960E94DC030E94F807DA
:100AC000A096E2E00C94300AA0E2B0E0EAE6F5E09D
:100AD0000C94140A6D8F7E8F8F8F98A3298F3A8F75
:100AE0004B8F5C8FBE016F5E7F4FCE014D960E9493
:100AF000C208BE01675F7F4FCE0149960E94C208BF
:100B00008A8591E089278A87AE014F5F5F4FBE01DA
:100B1000675F7F4FCE0141960E94DC030E94F80779
:100B2000A096E2E00C94300AA0E2B0E0EAE9F5E039
:100B30000C94060A6D8F7E8F8F8F98A3298F3A8F22
:100B40004B8F5C8FBE016F5E7F4FCE014D960E9432
:100B5000C208BE01675F7F4FCE0149960E94C2085E
:100B60009989923008F412C08985823008F41AC03D
:100B7000943021F4823009F4B4C008C0843021F4E8
:100B8000923009F4AEC00EC0923051F481E02A894F
:100B90009A85291301C080E08A8BCE014196A3C0BB
:100BA000823051F481E02A899A85291301C080E0BE
:100BB0008A87CE01099697C08D889E88AF88B88CA9
:100BC0000D851E852F853889E0E2F0E080E090E019
:100BD000DC01C12CD12C760140E050E0BA0180FE4E
:100BE00018C0400F511F621F731F8C0D9D1DAE1D3D
:100BF000BF1D412C512C320143944017510762070D
:100C0000730718F0412C512C3201840D951DA61D3F
:100C1000B71DCC0CDD1CEE1CFF1C37FF02C0689416
:100C2000C0F8000F111F221F331FB694A79497948A
:100C300087943197A1F62B893C89EB85FC852E0F93
:100C40003F1F2E5F3F4F3C832B8321E0EA893A858B
:100C5000E31301C020E02A83EB81FC810CC080FFFC
:100C600005C076956795579547957068B695A79591
:100C7000979587953196B7FDF2CF9F010CC0880FED
:100C8000991FAA1FBB1F77FD8160440F551F661F68
:100C9000771F215031090097A105E0E4BE0778F3E2
:100CA0002B833C838C019D010F771127222733274B
:100CB000003411052105310559F487FD09C0452B84
:100CC000462B472B29F0805C9F4FAF4FBF4F80785A
:100CD0008D839E83AF83B88783E08983CE0101969D
:100CE00002C080E092E00E94F807A096E0E10C9438
:100CF000220AA8E1B0E0EFE7F6E00C940E0A6D8B53
:100D00007E8B8F8B988F298B3A8B4B8B5C8BBE01A4
:100D1000675F7F4FCE0145960E94C208BE016F5F9C
:100D20007F4FCE0141960E94C2089985923008F407
:100D300075C08981823008F474C02A853A812327DE
:100D40002A87943011F0923019F4981367C06CC060
:100D5000843039F41D861E861F86188A1C861B86E1
:100D600004C0823029F484E08987CE0109965EC0F0
:100D70008B859C852B813C81821B930B9C878B8769
:100D80004D855E856F857889CD80DE80EF80F88423
:100D90004C155D056E057F0538F4440F551F661F21
:100DA000771F01979C878B87EFE1F0E000E010E070
:100DB00020E030E480E090E0DC014C155D056E053C
:100DC0007F0540F0802B912BA22BB32B4C195D0992
:100DD0006E097F093695279517950795440F551F7E
:100DE000661F771F319749F78C019D010F771127F7
:100DF00022273327003411052105310559F487FDD9
:100E000009C0452B462B472B29F0805C9F4FAF4FE5
:100E1000BF4F80788D879E87AF87B88BCE010996AC
:100E200005C0CE01019602C080E092E00E94F80762
:100E30006896E8E00C942A0AA8E1B0E0E2E2F7E064
:100E40000C94140A6D8B7E8B8F8B988F298B3A8B29
:100E50004B8B5C8BBE01675F7F4FCE0145960E9436
:100E6000C208BE016F5F7F4FCE0141960E94C2084B
:100E70008985823058F08981823040F0BE016F5FF1
:100E80007F4FCE0109960E94310901C08FEF68960D
:100E9000E2E00C94300AA8E1B0E0E1E5F7E00C9460
:100EA000140A6D8B7E8B8F8B988F298B3A8B4B8B93
:100EB0005C8BBE01675F7F4FCE0145960E94C208E2
:100EC000BE016F5F7F4FCE0141960E94C2088985A7
:100ED000823058F08981823040F0BE016F5F7F4FD1
:100EE000CE0109960E94310901C08FEF6896E2E0B9
:100EF0000C94300AA8E1B0E0E0E8F7E00C94140AA2
:100F00006D8B7E8B8F8B988F298B3A8B4B8B5C8B69
:100F1000BE01675F7F4FCE0145960E94C208BE01A9
:100F20006F5F7F4FCE0141960E94C2088985823053
:100F300058F08981823040F0BE016F5F7F4FCE0153
:100F400009960E94310901C081E06896E2E00C94A4
:100F5000300AACE0B0E0EFEAF7E00C94120A6987DF
:100F60007A878B879C87BE016F5F7F4FCE01099682
:100F70000E94C2088981823091F1823080F18430F0
:100F800041F48A81882331F100E010E020E030E86C
:100F900029C02B813C8137FD22C02F3131058CF7D0
:100FA0008EE190E0821B930B0D811E812F8138858D
:100FB00004C036952795179507958A95D2F78A81AB
:100FC000882381F030952095109501951F4F2F4F64
:100FD0003F4F08C00FEF1FEF2FEF3FE703C000E0C8
:100FE00010E09801B801C9012C96E4E00C942E0A97
:100FF0000F931F93CF93DF93DC0114964D915D9176
:101000006D917C9117971196EC9111978C9182308C
:1010100020F460618FEF90E0A6C0843009F49EC098
:10102000823009F495C0411551056105710509F437
:1010300092C012962D913C91139722388FEF38076A
:101040000CF058C0C2E8DFEFC21BD30BCA31D10588
:101050006CF58A019B010C2E04C0369527951795D7
:1010600007950A94D2F781E090E0A0E0B0E00C2E62
:1010700004C0880F991FAA1FBB1F0A94D2F70197BB
:10108000A109B10984239523A623B72341E050E0A9
:1010900060E070E0892B8A2B8B2B19F440E050E044
:1010A000BA01402B512B622B732B03C040E050E060
:1010B000BA01DB01CA018F779927AA27BB278034A1
:1010C0009105A105B10539F447FF09C0405C5F4FA8
:1010D0006F4F7F4F04C0415C5F4F6F4F7F4F81E088
:1010E00090E041155105610520E4720748F580E064
:1010F00090E026C0203831058CF5DB01CA018F77DE
:101100009927AA27BB2780349105A105B10539F499
:1011100047FF09C0405C5F4F6F4F7F4F04C0415C89
:101120005F4F6F4F7F4F77FD04C0C90181589F4FBC
:1011300007C07695679557954795C90180589F4F89
:1011400097E076956795579547959A95D1F70BC097
:1011500080E090E005C080E090E005C08FEF90E077
:1011600040E050E0BA01982F9695E0FB97F9362FB2
:1011700080FB37F9642F752F832FDF91CF911F915B
:101180000F910895CF92DF92EF92DC01FB01CC909A
:101190001196DC90119712968C9112973FE7E32EEF
:1011A000E8226E2DA60170E0982F991F9927991FAC
:1011B00013962C91822F880F892B90E027FB2227F2
:1011C00020F92183009729F5411551056105710525
:1011D00011F482E027C082E89FEF9383828327E0A7
:1011E000440F551F661F771F2A95D1F783E0808330
:1011F00009C0440F551F661F771F82819381019795
:101200009383828341155105610580E4780788F353
:1012100020C08F3F910579F4411551056105710595
:1012200019F484E0808319C0E4FE03C081E0808368
:1012300010C010820EC08F5791099383828383E080
:10124000808387E0440F551F661F771F8A95D1F76B
:1012500070644483558366837783EF90DF90CF90EB
:101260000895CF93FC01DB019081923008F452C0C5
:101270008C91823008F44EC0943071F4843039F48B
:1012800011962C9130E08181281B310948C0818161
:10129000882309F43FC03BC0843029F411968C9117
:1012A000811138C034C0923019F48230B9F735C09A
:1012B000823069F3C18111968C911197C8131DC0BA
:1012C0002281338112968D919C91139782179307F7
:1012D0000CF413C0281739070CF417C0448155814A
:1012E0006681778114968D919D910D90BC91A02D72
:1012F00084179507A607B70718F4C11108C00AC0DC
:10130000481759076A077B0740F4C11103C02FEF44
:101310003FEF05C021E030E002C020E030E0C9012D
:10132000CF9108958FEF8093660280935A02809345
:101330005B0280935C0280935D0280935E028093E7
:101340005F028093600280936102809362028093C7
:101350006302809364028093650210926702C0E08A
:10136000809166028F3F11F0C0916602C130C9F0D2
:10137000C130A8F50E94950060E070E086E196E437
:101380000E947E0260E070E086E196E40E94C7025F
:101390000E94EF00C1E0809166028F3F29F7C130C3
:1013A00039F7F89488E092E00E94AF020E94BE02F2
:1013B000843419F160E070E08AEF93E40E949700B2
:1013C0002F9A60E070E088EC92E40E9497002F98DA
:1013D00060E070E088EC92E40E949700C1CFC230D8
:1013E00009F0BECF0E94BE02833509F0B9CF81E477
:1013F00092E00E94AF02C1E0B3CF88E192E00E9488
:10140000AF027894C2E0ACCF2F923F924F925F929E
:101410006F927F928F929F92AF92BF92CF92DF9204
:10142000EF92FF920F931F93CF93DF93CDB7DEB769
:10143000CA1BDB0B0FB6F894DEBF0FBECDBF1994ED
:101440002A88398848885F846E847D848C849B8454
:10145000AA84B984C884DF80EE80FD800C811B8162
:10146000AA81B981CE0FD11D0FB6F894DEBF0FBE91
:10147000CDBFED0108954F925F926F927F928F9250
:101480009F92AF92BF92CF92DF92EF92FF920F9313
:101490001F93CF93DF932B018A016115710519F01A
:1014A000FB01808391830115110539F098012250C9
:1014B00031092332310508F0E6C07C01F701C19102
:1014C0007F013F018C2F90E00E94680B892BB1F7C0
:1014D000CD3229F4F701C1913F01D1E006C0CB32F2
:1014E00019F4F701C1913F01D0E00115110509F48C
:1014F000D8C00031110581F4D0C0F3018081883754
:1015000019F0883509F0C3C0F301C181F2E06F0E14
:10151000711CD26000E110E008301105D9F024F40C
:1015200002301105F9F407C00A30110551F00031FD
:101530001105C1F425C0C12CD12CE12C30E4F32ECF
:1015400024C00AE010E02CECC22EDC2CEC2C2CE0A9
:10155000F22E1BC008E010E0C12CD12CE12C90E150
:10156000F92E13C09801442737FD4095542F60E0B1
:1015700070E080E090E80E94830B69017A0105C069
:10158000C12CD12CE12C88E0F82E40E060E070E026
:10159000CB014801AA2497FCA094BA2CEC2FE0536D
:1015A000EA3060F02C2F21542A3110F4E75006C0A5
:1015B0002C2F21562A3128F5EC2FE7552E2F30E01D
:1015C00020173107F4F447FD18C0C616D706E80601
:1015D000F90680F09B01AC01C501B4010E94730BB8
:1015E0006E0F711D811D911D61307105810520E80F
:1015F000920710F04FEF01C041E0F301C1913F01AC
:10160000CDCF4114510491F0442339F0F1E06F1A29
:101610007108F2017182608209C0D1FF1BC0F2E043
:101620006F1A7108F2017182608214C047FF12C004
:10163000D0FF05C060E070E080E090E804C06FEF8C
:101640007FEF8FEF9FE722E230E030936902209333
:10165000680216C0D0FF08C090958095709561957E
:101660007F4F8F4F9F4F0CC097FF0AC082E290E0E0
:1016700090936902809368026FEF7FEF8FEF9FE78F
:101680006B017C0112C0C12CD12C76010EC0C0E3CD
:101690000115110509F45ECF3FCFC03309F03CCFEF
:1016A0002CCFC03309F04DCF28CFB601C701DF9151
:1016B000CF911F910F91FF90EF90DF90CF90BF904F
:1016C000AF909F908F907F906F905F904F90089514
:1016D000911106C0803219F089508550D0F70895D5
:1016E000992788270895DB018F939F930E94A50B6C
:1016F000BF91AF91A29F800D911DA39F900DB29FAE
:10170000900D11240895A1E21A2EAA1BBB1BFD0106
:101710000DC0AA1FBB1FEE1FFF1FA217B307E407D0
:10172000F50720F0A21BB30BE40BF50B661F771F28
:10173000881F991F1A9469F7609570958095909508
:101740009B01AC01BD01CF0108950E94B00BA59F84
:10175000900DB49F900DA49F800D911D11240895AC
:10176000A29FB001B39FC001A39F01D0B29F700D93
:0C177000811D1124911D0895F894FFCFF5
:10177C00000000000000000049443A204D61696EF1
:10178C0044726976650D0A004D617374657220466A
:10179C006F756E642E20537769746368696E672069
:1017AC00746F204472697665204D6F64652E0D0A46
:1017BC000053746F7020436F6D6D616E64205265C1
:0A17CC006365697665642E0D0A005E
:00000001FF
